:1000000000000220FDFD000025FE000027FE00008C
:1000100029FE00002BFE00002DFE00000000000065
:100020000000000000000000000000002FFE0000A3
:1000300031FE00000000000033FE000035FE00002D
:1000400037FE0000455A00009DFC000061FC0000E6
:1000500075FC000037FE0000CDE70000BDD30000B6
:1000600085F800008DF8000095F8000037FE0000CC
:1000700037FE000037FE000037FE000037FE0000AC
:1000800037FE000037FE000037FE000037FE00009C
:1000900037FE000037FE000037FE000037FE00008C
:1000A00037FE000037FE00009DF80000A5F80000B4
:1000B00037FE000037FE00000000000000000000D6
:1000C00037FE000037FE000037FE000089FC00000C
:1000D00037FE000037FE000037FE000037FE00004C
:1000E000C5FC00000000000000000000000000004F
:1000F0000000000037FE000000000000B1FC00001E
:1001000000000000000000000000000000000000EF
:1001100000000000000000000000000000000000DF
:1001200000000000000000000000000000000000CF
:1001300000000000000000000000000000000000BF
:1001400000000000000000000000000000000000AF
:10015000000000000000000000000000000000009F
:10016000000000000000000000000000000000008F
:10017000000000000000000000000000000000007F
:10018000000000000000000000000000000000006F
:10019000000000000000000000000000000000005F
:1001A000000000000000000000000000000000004F
:1001B000000000000000000000000000000000003F
:1001C000000000000000000000000000000000002F
:1001D000000000000000000000000000000000001F
:1001E000000000000000000000000000000000000F
:1001F00000000000000000000000000000000000FF
:1002000030B5214C04600325C0F81458002400F6D2
:100210001C0EF7EE007A0225C0E90144C0F8185818
:10022000CEED007AC0F8204800F624044FF0000C10
:10023000C4F800C09FED127B012480F828485C1EA2
:1002400000F5036E00F5046C032C8EED007B0CEDC5
:10025000027B05D85C1C6410C0F81438C0F818483C
:1002600092B207EE902A00F50162F8EE677A00F686
:100270000C031160C3ED007A30BD00BFAFF3008006
:100280000000000000000000E01E0100000000006F
:1002900082B010B59FED0C7B82B00146069CCC600D
:1002A00081ED067B1030002104AC019084E80C0045
:1002B00006F062FE019802B0BDE8104002B006F000
:1002C000AFBD00BFAFF300800000000000000000E1
:1002D00010B5054C237833B9044B13B10448AFF380
:1002E00000800123237010BD98150020000000003D
:1002F000A838010008B5034B1BB103490348AFF30D
:10030000008008BD000000009C150020A8380100F6
:10031000A3F5803A704700BF174B002B08BF134B63
:100320009D46FFF7F5FF00218B460F461348144A00
:10033000121A11F0E4FB0E4B002B00D098470D4B26
:10034000002B00D098470020002104000D000D482C
:10035000002802D00C4805F037FA10F0D3FB20003B
:10036000290000F02BF810F0B9FB00BF00000800D6
:100370000000000000000000000002200002002039
:10038000F01C0020C95700000000000010B5034B0E
:10039000036004460DF050F8204610BDBC1B010060
:1003A00010B5054B036004460DF046F8204611F0E9
:1003B00044FB204610BD00BFBC1B010000B5084D2A
:1003C000084C83B0294601A80CF062F8782201A9F4
:1003D000204608F017FE01A80CF032F8F2E700BF43
:1003E000A01B0100B80A002010B5054C204603F000
:1003F000ADFC2046034A0449BDE8104011F018BB8B
:1004000000030020100000200D0400005B4B03F1EE
:100410003C022DE9F0410446C0E9003200F590505D
:10042000002500F0C7FC564E564FDFF86C8104F5EE
:100430000C6000F051FA04F69400A4F89A58C4F83D
:10044000946805F001FE04F66C00A4F87258C4F834
:100450006C6805F0F9FD04F63C000AF0E1F84A4B3F
:10046000C4F82C3804F62C0006F05EFF04F60C00ED
:1004700008F01AFE04F2EC7008F016FE04F27C702C
:1004800000F078FB04F21C7002F002F904F5DE6063
:1004900001F06EF904F5D56000F0A2FCC4F88C768A
:1004A00004F28C600CF0C8FFC4F8747604F2746037
:1004B0000CF0C2FF04F20C600EF0A6FC334BC4F843
:1004C000C43204F5317704F5C1600BF029FF3846DA
:1004D000A4F8CA52C4F8C46205F0B6FD2C4BC4F8A7
:1004E000843204F521700AF053FA2A4BC4F8B8306C
:1004F0002833C4F8C03004F51E700BF011FF04F56A
:100500001D700BF00DFF04F1B80704F5167545F8E2
:10051000188C28460AF010FBA5F11000343D0BF0B2
:10052000FFFEBD42F3D100272846C4F8B860A4F806
:10053000BE7005F089FD04F1900009F0D1FC04F1D2
:10054000580008F0FFF904F13C00E663A4F842709B
:1005500005F07AFD04F124006662678505F074FDFC
:1005600004F10C00E660678205F06EFD201D6660F8
:10057000678105F069FD2046BDE8F0814C29010046
:10058000042B0100BC1B0100C02F0100AC2901009D
:1005900078360100E4340100C0340100A0F1040009
:1005A00034E700BF10B50446FFF730FF204611F0D6
:1005B00044FA204610BD00BF10B5041F2046FFF7C7
:1005C00025FF204611F039FA204610BD004870473B
:1005D00016FCFFFF704700BF704700BF0048704720
:1005E00016FCFFFF82B010B58C4684B04968864681
:1005F000DCF800000DF1080CACE8030006A981E866
:100600000C00039BDA070EEB630C12D55A10029B09
:100610005EF80220D45808AB93E803008DE803008D
:1006200006AB0CCB6046A04704B0BDE8104002B05A
:100630007047029CEFE700BF2DE9F04F83B0DDE982
:100640000CABBDF83870002B41D080460E46914669
:100650001D46BAF1000F3DD00F2E01D1C02F36D16B
:10066000282011F0ECF9044610300BF05DFB182047
:100670002680A4F8029011F0E2F9CDE900AB47F032
:100680000207A7806B4607460246A06003CB47F8E7
:100690000C5B0023D8F80060D360E3607B6091605E
:1006A000506075680D495161C4E908330C4B9D4297
:1006B00008D1204606F082FD204603B0BDE8F04F89
:1006C00011F0BBB921464046A8470028F1D103B03C
:1006D000BDE8F08F1BF0010FBED1F8E7E505000083
:1006E000DD05000070B5044682B0382011F0A7F98E
:1006F00004F1080613233246054624490093244B8F
:100700000DF04EF90021C4F8D85828460DF05CFAD7
:10071000D4F8D8080DF01CFA81B2304601F034FF4D
:100720004FF40041304601F039FFD4F8D80888B1C1
:1007300094F86438D4F86C188BB90DF0CBFBD4F86E
:10074000D80894F8653828B1D4F868185BB100224D
:100750000DF07CFBD4F8D4385BB102B070BD01223F
:100760000DF074FBEBE70DF0B5FBD4F8D438002B9B
:10077000F3D1002240F2FF3304F50761304601F067
:10078000C3FEC4F8D40802B070BD00BF0010024020
:1007900000442C4710B5044649B3D0F8D83823B3E9
:1007A000C388194A43F001030221C380C2F88410B0
:1007B000BFF34F8FBFF36F8FD0F8D8080DF040FB19
:1007C000D4F86C18D4F8D8080DF084FBD4F8681865
:1007D000D4F8D8080DF07EFBD4F8D80810B103681F
:1007E0009B6998470023C4F8D838002010BDC388FF
:1007F000DA07FAD5D0F8D82823F00103C380002AFD
:10080000F3D1FFF76FFFF0E700E100E082B038B509
:1008100004A981E80C00BDF81250BDF81010044680
:100820002A461D4805F066FD052D20D0032D1ED05B
:1008300025F00205042D03D0BDE8384002B0704712
:10084000D4F850381B6A002BF6DCD4F8E4080368AF
:1008500000211B689847D4F8E40800210EF0BCF88A
:10086000D4F84808BDE8384002B00BF095BFD4F882
:10087000E408036801211B689847D4F8E4080121C3
:100880000EF0AAF8D4F84818D4F8DC08BDE83840CF
:1008900002B00CF0DDBB00BFFC1B0100044B18686C
:1008A00010B1D0F8D83803B17047FFF71BBF00BFB5
:1008B000B4150020D0F8D83880F865185BB129B19C
:1008C000D0F86818002218460DF0C0BAD0F86818A1
:1008D00018460DF0FFBA704770B50446D0F8D80836
:1008E0001C4B236048B1D4F86C180DF0F3FAD4F81F
:1008F0006818D4F8D8080DF0EDFA174BC4F8F038A2
:1009000003F1800103F1A402C4F80419C4F80C290E
:10091000124E002504F618100BF002FD04F6041028
:10092000C4F80469A4F80A5905F08EFB04F6EC003B
:1009300002F054FD04F5076002F024FA04F1080007
:1009400001F0CEFB20462660E58005F07DFB2046C9
:1009500070BD00BF181C010044280100042B0100D9
:1009600010B50446FFF7B8FF204611F066F82046A0
:1009700010BD00BF2DE9F0474FF000088AB01D46BA
:10098000714B03600646C0F80480044617468A4649
:10099000DDF8489005F0EAFA6C4B46F8083B6C49E4
:1009A000032340F2FF323046FFF72AFC40F20113E6
:1009B000C4F86C7804F507674AF64442A4F8643832
:1009C00040F6C231C4F868A8384602F079FA139BA1
:1009D000C4F8E4383946C4F8D488C4F8D888C4F8D0
:1009E000DC58C4F8E09804F6EC0002F0F5FC2B2289
:1009F000314604F50F6002F093FF564B1A68002A47
:100A000000F0A0803846012102F0DAFC00224946BD
:100A100028460CF0C5FA5A21C4F8480828460CF0BC
:100A200005FA07210022D4F848084B4E0BF014FFBA
:100A300005F088FA02465020059211F000F8D4F82B
:100A40004818059A054618310BF050F8C4F8545868
:100A500028460AF089FD01464020059110F0EFFF7D
:100A60000A23019302233D4A059900930123054679
:100A70000AF0E2FCD4F85408C4F84C580368DB6868
:100A8000984701465020059110F0D9FF00230193AB
:100A900040F6B933029300274FF083430093059942
:100AA0002F4B304A039705460AF0E2FA3368C4F840
:100AB0005C588BB12C490691079706A903C9D4F855
:100AC000542815898DE803001846C02302933A463E
:100AD00029462346FFF7B0FD502010F0B0FFD4F8B0
:100AE0004C180546252224310BF000F8C4F8505864
:100AF00028460AF039FD01463020059110F09FFF8D
:100B000000271523CDE9003705994B23962205468A
:100B10000AF0DAF83668C4F858587EB1124BCDE9BD
:100B20000837C02302930AAB13E903003A468DE865
:100B30000300234625213046FFF77EFD20460AB0FC
:100B4000BDE8F0871C605DE7042B0100181C010064
:100B500000442C47B4150020881B00200AD7A33D71
:100B6000000082420000AA420D08000000487047C1
:100B700016FCFFFF10B5074B03F10802483304468B
:100B8000026040F83C3F07F0F3FF204601F08AFD89
:100B9000204610BD341C0100094B10B503F10802BA
:100BA00048330446026040F83C3F07F0E1FF20462E
:100BB00001F078FD204610F040FF204610BD00BF38
:100BC000341C0100094A10B502F108014832A0F1B5
:100BD0003C0440F83C1C026007F0CAFF204601F0CC
:100BE00061FD204610F029FF204610BD341C010095
:100BF000084B10B5044603F10801483340F83C1C8B
:100C000044F83C3907F0B4FF204601F04BFD204684
:100C100010BD00BF341C0100F0B5044683B018209D
:100C200015460F4610F00BFF0D491B2206460EF02D
:100C30003DFE012300933A462B463146204601F003
:100C4000C7FE2A46214604F13C0007F0D5FF054BBC
:100C5000204603F1080248332260E36303B0F0BD8D
:100C600000B00140341C0100F8B50646044656F8B1
:100C70005C0B03684FF400620025DF69E2620B231E
:100C80003146B8472946102284F8835084F87850BA
:100C900084F86D5084F8885004F1790010F06EF8F3
:100CA00029461022E06304F16E0010F067F8236813
:100CB000E56A1A68606405F5006518466563136B9C
:100CC000E76B98472844874212D3656CE36BAB42CD
:100CD0000ED220680368DB6A9847854208D205492E
:100CE0000E22304610F0D3FEB0FA80F04009F8BD75
:100CF0000020F8BD981C010038B50446154618467A
:100D00004FF480720423C4E90150216004F10C0007
:100D1000083103F00FFE04F1240006F07DF804F121
:100D200090000BF009FC0023C4E91133C4E913332C
:100D300023632362A363E3626363E363A4F8543031
:100D4000A365C4F88C30204638BD00BF30B5036AB7
:100D5000DB078DB0044608D4FFF786FF28B9236A65
:100D600023F0010323620DB030BD2D22002168461F
:100D700010F0C5FE2068E16A02680B23156A6A4616
:100D8000A8472068016801230D6A616C6A46A8477C
:100D9000E5E700BF38B500F124050446284606F013
:100DA0003FF82046FFF7D2FF2846BDE8384006F05E
:100DB000AFB800BF10B5044690300BF041FB2046A1
:100DC00010BD00BFC1600020704700BF00487047E1
:100DD00016FCFFFF014B1880704700BFE41C002089
:100DE00010B5044A026000230446C38005F02CF9C4
:100DF000204610BD042B010010B5064A02600023F6
:100E00000446C38005F020F9204610F016FE204667
:100E100010BD00BF042B010082B010B58C4684B019
:100E200049688646DCF800000DF1080CACE80300C8
:100E300006A981E80C00039BDA070EEB630C12D5C0
:100E40005A10029B5EF80220D45808AB93E80300C6
:100E50008DE8030006AB0CCB6046A04704B0BDE8AC
:100E6000104002B07047029CEFE700BF2DE9F84345
:100E700000251E46134B456004460360174688460E
:100E8000BDF8209005F072F80F4B2360C4E9088785
:100E9000A66204F12C0005F0BFFF00220023C4E984
:100EA0000E23E388256143F4804343F00403656126
:100EB000A5616563A4F84050A4F80490E38020463F
:100EC000BDE8F883042B0100901D0100C3885B0777
:100ED0000CD510B5006A84B0026800230093146A30
:100EE000E0210DF10F02A04704B010BD704700BF14
:100EF00070B5C3885B0784B004460D4608D5006A08
:100F0000002302680093166AE0210DF10F02B0473A
:100F1000206A2A6801685388002400940C6A04320D
:100F2000E021A04704B070BD70B54B6AD3F80C2324
:100F3000B3F81243526884B0064603F543700D4679
:100F4000904784F48074B0FA80F3C4F300245B0902
:100F5000A34229D10C2101220DEB01000BF0B8F9BD
:100F6000EB885B0708D5286A002302680093146A9F
:100F7000E0210DF10B02A047286A039A03680021C3
:100F800000919C6A04320C23E021A04748B903A9D0
:100F900030460BF0BBF903A80BF0C2F9304604B0A1
:100FA00070BD03A80BF0BCF930460BF08BF930464E
:100FB00004B070BD70B50C4682B0064668460BF0B2
:100FC00081F9E38801252B43E380012006F0A4F991
:100FD000214601A8FFF7A8FF01A968460BF0A8F970
:100FE00001A80BF09DF9009B5A88691CE2B11A799F
:100FF000202A1DD1E2885B79920601D5392B1FD0BA
:10100000312B11D0022168460BF00EFAE38823F051
:1010100001036946E38030460BF078F968460BF02F
:101020007FF9304602B070BD132D0BDC0D46CCE7C6
:10103000132AE7D05979104806F016F9C11CE2E7E7
:101040000125C2E70D4805F045F90122022101A85A
:101050000BF03EF9019B20221A7138225A71E38865
:1010600023F00103E38001A930460BF04FF901A8FA
:101070000BF056F9D2E700BF401D0100AC1C010087
:1010800070B584B00D4601921E4604460BF01AF965
:10109000019903A80BF03AF903A92846FFF728FFA6
:1010A00000B92EB903A80BF03BF9204604B070BD7F
:1010B00003A80BF035F9294603A8FFF77BFF03A926
:1010C00020460BF035F903A80BF02AF9204604B0AE
:1010D00070BD00BF70B582B01646044601220D46B1
:1010E000684602210BF0F4F820460BF0EBF8009B69
:1010F00010225E711A71694601A80BF007F901A967
:101100002846FFF7F5FE064601A80BF009F92EB1B7
:1011100068460BF005F9204602B070BD294601A8CB
:10112000FFF748FF01A920460BF002F901A80BF0D8
:10113000F7F868460BF0F4F8204602B070BD00BF27
:1011400030B5CB889B0783B00C46054606D5A06812
:10115000A38928602846AB8003B030BD68460BF0F9
:10116000B1F80122214601A8FFF7B4FF01A96846A2
:101170000BF0DEF801A80BF0D3F8009BB3F80730B2
:10118000A3810222214601A8FFF7A4FF01A9684616
:101190000BF0CEF801A80BF0C3F8009BB3F80730B2
:1011A0002381022B03D1E38843F02003E380032251
:1011B000214601A8FFF78EFF01A968460BF0B8F899
:1011C00001A80BF0ADF8009BA189B3F8073063814B
:1011D00049F60412E388914216BF23F0040343F05A
:1011E000060343F00203E38068460BF099F8AEE78C
:1011F00070B50C4684B00421054601220DEB0100B8
:101200000BF066F8019A122313710126082384F06B
:10121000010453719671D47101A90DEB03000BF019
:1012200075F83346294602AA03A8FFF729FF03A849
:101230000BF076F802A80BF073F801A80BF070F829
:1012400004B070BD30B5012185B00446FFF7D0FF72
:101250000021012004F00CFF04210DEB010001220C
:101260000BF036F8019A12231371072301255371ED
:1012700008239571D37101A90DEB03000BF046F81B
:101280002B4602AA214603A8FFF7FAFE03A80BF09B
:1012900047F802A80BF044F80A2006F03DF8606A0F
:1012A000032100F543700DF0B1FB4FF0804301A81E
:1012B000C3F800550BF034F805B030BDC388DB0728
:1012C00000D5704730B50446406AD0F80C33B0F80A
:1012D00012535B6883B000F54370984785F48075BE
:1012E000B0FA80F0C5F300254009A8421CD1684639
:1012F0000AF0E8FF214601A8FFF716FE01A968469B
:101300000BF016F801A80BF00BF8009B5A8842B1BD
:101310001A79112A02D15A79092A07D0124804F001
:10132000D9FF68460AF0FCFF03B030BD9979012966
:10133000F4D1DB79022B07D0032B0DD0012B07D082
:101340000A4804F0C7FFECE7094804F0C3FFE8E7E8
:10135000084804F0BFFFE4E7074804F0BBFF20465D
:10136000FFF770FFDDE700BFC01C0100201D01007A
:10137000F81C0100E01C0100081D0100C38870B5C5
:1013800013F0010503D0124B00221A6070BD044611
:10139000406AD0F80C33B0F812635B6800F5437014
:1013A000984786F48076B0FA80F0C6F300264009AC
:1013B000B042E8D1064A13681D2B02DC01331360EA
:1013C00070BD20461560BDE87040FFF777BF00BFD5
:1013D000B8150020C38819B143F00103C3807047DA
:1013E00023F001039BB2C380704700BF08B505F02E
:1013F000FDFC003818BF012008BD00BF10B5044631
:1014000007F0A2FAD4E90E32C01A61EB0201B0F57E
:10141000FA7F71F1000305D3606B0028CCBF002078
:10142000012010BD002010BD30B5194B1D688DB0D6
:1014300045B3044606A80AF077FC164B0293182021
:1014400010F0FDFA14490022CDE900120146CDE961
:10145000040241F80C4BCDE90A22C2604A606A4698
:10146000034603CA586099602A680C4992680C4880
:1014700058618A424FF01203ADF80C3004D102A833
:1014800005F09CFE0DB030BD02A928469047F6E756
:10149000881B0020FF030500A5140000CD0D0000EF
:1014A000190E000082B010B502A981E80C00BDF849
:1014B000082040F2FF339A4203D0BDE8104002B04A
:1014C0007047BDF80A30052BF7D1044600212C30B7
:1014D00005F052FD002005F091FC2046BDE81040CB
:1014E00002B0FFF7A1BF00BF2DE9F04F8BB0064659
:1014F0009DF8500004901F460D460191144607F0D8
:1015000033FAB36A002B00F0F68082468B4607F070
:101510002BFA6DB1844277EB0103C0F0EA80774A81
:10152000201A67EB0101002382428B4180F0E180A9
:1015300030460121FFF75CFE049B002B14BF022004
:101540000120002104F094FD08A807F0D7FA804696
:10155000B06A02910368C168DA6943690791D3F8F8
:1015600048150591D3F804130691D3F80413C3F872
:101570000813634B9A4240F0B480624BC360DFF8BB
:1015800094910023A9F80030049B73B9159B63B1B3
:101590001B6815985B689847159BD988C1F3002193
:1015A000C1F1030118460DF031FA706A032100F50C
:1015B00043700DF02BFAB06A534A03684021DB6B8D
:1015C0001160089A02219847B06A03689B6A98479D
:1015D0000D3C029B47F1FF37B4EB0A0467EB0B07A6
:1015E000B8EB0A0863EB0B0B18EB08084BEB0B0B83
:1015F000B4EB0803029367EB0B030393019B089C76
:10160000DFF814B100252F46AA4643B3029B039985
:101610009D4277EB010224D25A1B61EB07039345ED
:101620007AEB03031BD3B06A03682244DB6B02210D
:10163000984730BFB06A03689B6C9847041B6519D4
:10164000804647F1000707F08FF9B9F8002092B201
:10165000444632B1019BA9F800A0002BD6D15A46CE
:10166000E1E7706A002100F543700DF0CFF90499AD
:1016700021B9159B13B118460DF0C8F9B06A03687B
:101680001B6B9847B06A0368DA694369D3F804139F
:10169000C3F808131A498A4226D1079AC260059AEC
:1016A000C3F84825002200231946104607F036FAF1
:1016B000B36A049A5B69002A069AC3F8042314BF2C
:1016C00004200320002104F0D3FC00213046FFF762
:1016D0008FFD07F039F9C6E90E0100200BB0BDE817
:1016E000F08F084990474AE707999047B36A5B69CA
:1016F000D5E70648F2E70648F0E700BF9F860100FD
:10170000C50D0000D50D000000E100E009FCFFFF61
:1017100016FCFFFFE41C0020BFBDF0FF70B50446BF
:1017200084B0002005F06AFB2046FFF77DFE002212
:10173000002302A8CDE9022307F006FA00260123C0
:10174000014600930196DDE902232046FFF7CCFE17
:101750003146054604F12C0005F00EFC284604B085
:1017600070BD00BF6FF47D70704700BF00207047F0
:10177000094B10B503F10802483304460260836048
:1017800018300AF05DFE054A226000232046E380FF
:1017900004F05AFC204610BD601E0100042B01001D
:1017A000002070470B4B10B503F108024833044684
:1017B0000260836018300AF043FE074A226000236B
:1017C000E380204604F040FC204610F036F9204625
:1017D00010BD00BF601E0100042B01002DE9F04187
:1017E0001D46104B03600023436004460F46164617
:1017F000BDF8188004F0BAFB0B4B656103F10802D9
:1018000048332260A360C4E9037604F118000AF0AB
:1018100093FE40221823A4F80480A262E3802046AD
:10182000BDE8F081042B0100601E01002DE9F04F9E
:101830002DED028B032B87B008EE100A0C461746DD
:1018400019464FF00102B8BF032105A803930AF01F
:101850003FFD594DDFF86CB14FF01409606901216B
:10186000FFF7B8FDE0683A680168538800260096E3
:101870000E6A0432E421B047824600286DD13B68ED
:101880001B790C2B74D1E38813F0400F14BF642034
:10189000142005F073F94FF000082369D3F80C23E6
:1018A000B3F8126303F54370536886F48076AB4255
:1018B000C6F300264CD10020864225D100221146D5
:1018C0004FF0FF3305A80AF043FDE068059A016870
:1018D0005388CDF800808E6A0432E421B0478246F6
:1018E000002849D1059A3968137909798B424CD07F
:1018F000E08880061FD5202B0ED15379392B0BD1D0
:10190000012005F03BF9C8E70AF1010A012005F0C2
:1019100035F9BAF1140FC0D1B9F101099ED12748A8
:1019200004F0D8FC60694946FFF754FD18EE100A30
:101930000AF0C8FC36E0002BE2D0202BECD1537922
:101940009942DDD0002BDBD0B9F1010986D1E6E761
:101950009847B0FA80F04009AEE7584604F0BAFC68
:10196000012005F00BF9B9F101097FF477AFD6E753
:10197000012005F003F98EE70146114804F0AAFCA6
:10198000B9F101097FF46AAFC9E760695146FFF711
:1019900021FD039905A80AF047FD18EE100A05A9D4
:1019A0000AF0B4FC05A80AF0BBFC18EE100A07B058
:1019B000BDEC028BBDE8F08F65170000E81D01004B
:1019C000C81D0100AC1D01002DE9F0410C4684B09A
:1019D0000546486998461746FFF778FAE388DB061C
:1019E00011D403AE394630460AF090FC43463246E5
:1019F00021462846FFF71AFF30460AF091FC284698
:101A000004B0BDE8F0810122114601A80AF060FC93
:101A10003B681B79032B019B0CBF062203221A7122
:101A200001A902A80AF072FC03210A4805F01CFC77
:101A300003AE034602AA21463046FFF7F7FE3046C2
:101A40000AF06EFC02A80AF06BFC01A80AF068FC20
:101A5000C8E700BF181E0100F0B585B00446174660
:101A60000E460122082101A89D000AF031FC204603
:101A70000AF028FC47F02060019F03F0EBFC78603F
:101A8000284603F0E7FC01A9B86002A80AF03EFC72
:101A900005F1080302AA314603A8FFF795FF03A941
:101AA00020460AF045FC03A80AF03AFC02A80AF016
:101AB00037FC23685B88082B12D9002220464FF0A0
:101AC000FF3308210AF064FC23685988204608394E
:101AD0000AF0AAFC01A80AF023FC204605B0F0BDDC
:101AE00003A80AF0EFFB03A920460AF021FC03A893
:101AF0000AF016FC01A80AF013FC204605B0F0BD60
:101B000030B583B00C46014601A81D46FFF7A4FF7F
:101B100001994B885BB12046AA0004310FF0C7FF42
:101B2000002401A80AF0FCFB204603B030BD014CA4
:101B3000F7E700BF0CFCFFFFA0F10800FFF7E0BFD4
:101B40002DE9F04F804685B068464FEA83090D467F
:101B500092460AF0B7FBD8F828104945A8BF494675
:101B60000831012201A80AF0B3FB09EB050B4FF085
:101B7000FF330022FF2101A80AF0EAFB5D453DD2B8
:101B8000002601E0AB4539D9D8F82820019FA9EB00
:101B90000604944245F03060A8BF144603F05AFC96
:101BA0007860204603F056FC26F00301224651449B
:101BB000B86007F10C000FF07AFF04F1080101A8EA
:101BC0000AF032FC01A902A80AF0A0FB092302AA2C
:101BD000414603A8FFF7F8FE03A968460AF0A8FBF0
:101BE00003A80AF09DFB02A80AF09AFB009B5B8801
:101BF00025442644002BC5D1064C00E0002401A852
:101C00000AF08EFB68460AF08BFB204605B0BDE863
:101C1000F08F00BF0EFCFFFFA0F10800FFF790BFA0
:101C200070B5154682B0012204460E46684611463C
:101C30000AF04EFB009B69461D7101A80AF066FB85
:101C40002946094805F010FB01AA03463146204603
:101C5000FFF7BAFE01A80AF063FB68460AF060FBD2
:101C6000204602B070BD00BF181E010010B5C38829
:101C70009B0784B0044609D5636A00209AB262F3D8
:101C80000F001B0C63F31F4004B010BD01A80AF045
:101C900019FB0722214602A8FFF7C2FF02A901A8EB
:101CA0000AF046FB02A80AF03BFB019B5A88B2B936
:101CB0000622214602A8FFF7B3FF02A901A80AF0F5
:101CC00037FB02A80AF02CFB019B5A881AB901A81D
:101CD0000AF026FBD0E75B7984F82630F7E7B3F803
:101CE000050003F0C7FB0622A084214602A8FFF7E7
:101CF00097FF02A901A80AF01BFB02A80AF010FB3B
:101D0000019B5A88002AE2D05B79A28C84F82630A5
:101D100002FB03F3B3F5F83F1EDC616902A8FFF78D
:101D20000FFABDF80830012B4FF04002E3881AD0BB
:101D300023F0100343F02803A2629BB2BDF80C20ED
:101D400002F5CD427B3292B2012A98BF43F04003A4
:101D500043F00203E380BAE74FF4F833B3FBF2F247
:101D600084F82620D9E7A26243F01803E6E700BF13
:101D70002DE9F04788B0064615460C460122082199
:101D800001A80AF0A5FA02A80AF09CFA03A80AF032
:101D900099FA04A80AF096FA3046FFF767FF96F81A
:101DA00026300590B08C04EB850900FB03F39945C0
:101DB00000F2D980B9FBF0F8B4FBF0F100FB08F8B1
:101DC000B9EB080300FB01FA08BFA8EB0008544573
:101DD0004FEA850500F0C180C31A00FB1144B3FB34
:101DE000F0F700FB1737002C40F08180002F40F007
:101DF0008F80F3881B073ED5C2455ED8544607AD99
:101E000003E0B38C1C44444557D844F04060019F24
:101E100003F020FB7860204603F01CFB01A9B860AA
:101E200006A80AF073FA012306AA31462846FFF7EE
:101E3000CBFD294602A80AF07BFA28460AF070FA80
:101E400006A80AF06DFA029B5B88002BD9D147489F
:101E5000474C04F03FFA04A80AF062FA03A80AF01B
:101E60005FFA02A80AF05CFA01A80AF059FA2046C3
:101E700008B0BDE8F0874AF04060019C03F0EAFA40
:101E80006060404603F0E6FA01A9A06006A80AF0E7
:101E90003DFA012306AA314607A8FFF795FD07A9D9
:101EA00002A80AF045FA07A80AF03AFA06A80AF0CA
:101EB00037FA029B5B88002BC9D0039B5B88002B01
:101EC00035D1049B5C88002CC5D004A907A80AF072
:101ED0001DFA079A33681C6A5388494604329B08E6
:101EE0003046A04707A80AF01BFA0024B3E707AD65
:101EF000A308524631462846FFF7AEFD294603A8FF
:101F00000AF016FA28460AF00BFA002F3FF471AFD8
:101F100007ADBB084A4631462846FFF79DFD2946D6
:101F200004A80AF005FA28460AF0FAF961E703A9BD
:101F300007A80AF0EBF9079A33681C6A53885146E0
:101F40009B0804323046A04707A80AF0E9F9049B31
:101F50005C88002C3FF47FAFB7E7021B4244AA42E3
:101F60007FF43AAF45E76FF47A7474E7081E010016
:101F70000EFCFFFF10B5044684B00191FFF776FE1A
:101F8000A28C01999208204604B0BDE81040FFF7EA
:101F9000EFBE00BF10B5044682B0FFF767FEA38C0A
:101FA00094F8260003FB00F002B010BD10B5044603
:101FB00082B0FFF75BFEA08C02B010BD10B50446E6
:101FC00082B00838FFF752FEA08B02B010BD00BFF0
:101FD0000368084ADB6A93420BD110B5044682B00D
:101FE000FFF744FEA08C94F8263003FB00F002B00B
:101FF00010BD1847951F000010B5044682B0083880
:10200000FFF734FEA38BA07F03FB00F002B010BDEE
:1020100030B5044685B0A0F1080528460191FFF7C8
:1020200025FEA28B01999208284605B0BDE83040F4
:10203000FFF79EBE10B550F8083C0A4ADB6A93428F
:10204000044682B0A0F1080003D002B0BDE8104001
:102050001847FFF70BFEA08BA37F03FB00F002B035
:1020600010BD00BF951F000003460020DA68013252
:10207000DA6070470B6881601B680846184700BF2C
:10208000D0F81408704700BF4B1E032B02D96FF421
:102090007A7070474B1C5B10C0F81418C0F81838E1
:1020A0000020704700F501600068704710B5044BD0
:1020B000044640F8083B0AF033F9204610BD00BF43
:1020C000CC1E010010B5054B044640F8083B0AF051
:1020D00027F920460FF0B1FC204610BDCC1E0100B0
:1020E000F8B54468104B03600546D4B10F4E104F4D
:1020F00008E040F8087B0AF013F920460FF09DFC39
:102100006C6874B16068E26B03689B686A609847AA
:1021100023689B68B3422046EBD098476C68002C3C
:10212000F0D12846F8BD00BFE01E0100C520000028
:10213000CC1E010038B54B680C461A684FF07E5132
:102140000546D2682163184605F50165904795ED6F
:10215000006A9FED117AD4ED067AD4ED075AC7EEE6
:10216000276A431C03EBD37320F002025B10012AA1
:10217000C4E90D0385EE867AC4ED096A84ED0A7A16
:1021800002D00023236238BDBEEE007A67EE877A64
:10219000C4ED087A38BD00BF00C07F442DE9F04F80
:1021A0002DED068B8BB00C460AEE100A029106F05C
:1021B000DBFB63680193CDE90401002B00F0828111
:1021C000029B4FF40072D3F8183892FBF3F2002A06
:1021D00040F38B81029B0C3392000021184603933D
:1021E0000FF08DFCC34E9FEDC48A01240AE00298D3
:1021F0005946FFF79FFFDBF834505DB9019B002B78
:1022000000F09980019B9B46DB6BDBF83450019317
:10221000002DECD0029B4FF4007AD3F818289AFBDB
:10222000F2FA039A0AF1030A03EB8A03934200933A
:10223000E4D99046A246DBF80830DBF838205B880A
:1022400093FBF2F307EE903A9BED0B7ADBED0A6A13
:10225000009BF8EEE77AA3EB080777EEC77ABF108A
:1022600087EEA67AFDEEC78A18EE904ABC42A8BF58
:102270003C46A4B3DBF81000A246C14656F8253010
:10228000984707EE900A9BED087A9BED096ADBED13
:102290000C6ADBF81000F8EEE77ABAF1010A77EE83
:1022A000877A99ED007A67EE867AA6EEA77AA9EC8E
:1022B000017ADBED0B7A9BED0A7A37EE877ADBED5C
:1022C0000E7A8BED0B7AF8EEE77A67EE877AFDEE01
:1022D000E77A17EE903A1844D0D108EB840818EE4C
:1022E000903A9F421FDBDBF80C30FBB1DBF80410A7
:1022F000013BCBF80C300B6806A81B68984706A971
:102300000BF108000AF014F806A80AF009F8DBF847
:1023100008308BED0B8A5A880433CBF81030134405
:10232000CBF8143012B1009B434584D8019B54462E
:10233000002B7FF467AF002C40F08580029B93F860
:1023400028387BB1029B049AC3F83828059AC3F851
:102350003C2883F828480222012340F6D63106A8FB
:1023600009F094FC01224FF4007106A809F0B0FFB7
:10237000029A069C9FED617A658802F60C0393ED44
:10238000008A02F61C03D3ED007AD2F81438D2F892
:10239000182895FBF2F568EE277A032BC7EE879A8B
:1023A00004F1040400F08580012B00F08280F6EE39
:1023B000007A68EE678A9FED529A28EE278A75B3F5
:1023C000B8EEC99A039F4F4EDDF80880023D02E047
:1023D000D8F81438013DB7EC017AD8F8202856F81F
:1023E0002330F0EE497AE7EE297A2046F4EE687A57
:1023F000F1EE10FA48BFF0EE687AF4EE487AF1EEAA
:1024000010FAC8BFF0EE487AFDEEE77A17EE901AA0
:1024100011439847D8F818381C446B1CD8D1029B3C
:10242000986803681B68984706A91AEE100A09F015
:102430006DFF06A809F074FF1AEE100A0BB0BDEC90
:10244000068BBDE8F08F029A02F62403D3ED007AE2
:10245000F5EE407AF1EE10FA0ED0D2F818384FF4BB
:10246000007292FBF3F2002A06DD039B03EB82026B
:10247000E3EC017A9A42FBD1029B93F82838002BB7
:102480007FF470AF02990498C1F8300801230598D1
:1024900081F8283801F5046400260027C1F83408C3
:1024A0001A4644E9026740F6D63106A809F0EEFB69
:1024B00058E7B6EE009A28EE099ADFED0F8ABDEED6
:1024C000C99A7CE7029B986803681B6898471AEED4
:1024D000100A01224FF4007109F0FAFE1AEE100AF8
:1024E0000BB0BDEC068BBDE8F08F029B0C33039361
:1024F00078E600BF200000200000000000C07F44FC
:10250000000000004400002070B505462DED028B50
:10251000402008EE902A0E4608EE103A0FF08FFA8F
:102520004022044600210FF0EAFA2046154B40F8FD
:10253000083B09F0C7FEF5EE408AF1EE10FA04BF41
:1025400005F50163D3ED008A6660B8EEC88A002302
:10255000002221462846C4E9033384ED068AC4EDEF
:10256000078A6361E262FFF7E5FD33686A685B68CA
:10257000E26330466C6021469847BDEC028B2046F2
:1025800070BD00BFCC1E010007EE901AF8EE677A0E
:1025900000F60C00C0ED007A00207047C0F820184B
:1025A00000207047406810B5134C01440120C4F866
:1025B0000405D4F800040028FBD093B1101FC2F129
:1025C000040202EB010C0C4A00EB830E0CEB00033F
:1025D00050F8041F1960D2F80034002BFBD070456E
:1025E000F4D1054A0023C2F80435D2F80034002B98
:1025F000FBD0002010BD00BF00E0014040680D4A44
:1026000002230144C2F80435D2F80034002BFBD079
:102610000848C2F80815D0F80034002BFBD000237E
:10262000044AC0F80435D2F80034002BFBD0002057
:10263000704700BF00E0014000207047C06870474D
:10264000D0E9023003FB00F0704700BF10B504462C
:1026500008466468114621449A000FF028FA0020C9
:1026600010BD00BF02680549D2688A4204D1D0E992
:10267000020303FB00F07047104700BF4126000033
:10268000C360024B0360C0E901127047041F0100E0
:10269000704700BF6FF47D70704700BF6FF47D70AE
:1026A000704700BF10B5C388044A026023F400538A
:1026B0000446C38005F08AF9204610BD281F01009A
:1026C00010B5C388064A026023F400530446C38051
:1026D00005F07CF920460FF0B0F9204610BD00BF90
:1026E000281F0100036870B55A6C0A4DAA420446BF
:1026F00006D15B68084A934208D16FF47D7070BDC3
:1027000090472368044A5B689342F6D02046BDE8B0
:10271000704018479D2600006517000070B50646FA
:10272000006A0368DB6A9847306A03681B6B984746
:10273000F369D868002820DD06F130011E4D0844F9
:10274000002411F9012B02F5A272884245F82240BB
:10275000F7D11A4D002402E0DA68A2420DDD5A6971
:1027600052F8240002685268AA4204F10104F3D02E
:102770009047F369DA68A242F1DC9A68002A13DD17
:102780000E4D002402E09A68A2420DDD1A6952F84B
:10279000240002685268AA4204F10104F3D0904771
:1027A000F3699A68A242F1DCF388002223F0020365
:1027B000F380F27570BD00BF006000406517000037
:1027C000C37D0BB1FFF7AABF704700BF2DE9F04FE3
:1027D000C37D85B004460191002B6CD1C388029360
:1027E000E669F368002B6DDD0123206ADFF8E880DD
:1027F000DFF8E8E0344D354F039404F1300C04F178
:10280000350200219B469C1C8CF8003014707469C2
:102810006458247C03F5A27948EA04244EF8294040
:1028200012F9019B446909F1A20901F5A27A544405
:1028300045F8394012F9014C1CF9019BA23405EB13
:10284000C40407EB8909C4F8049012F9014C0BFA8F
:1028500004F4C5F80445F4689C4201F1040103F155
:102860000103D0DC039C029B23F00103E380019B66
:10287000327A1749023B012B9CBF0132D2B26275FA
:10288000C2EB0212134B9200B3FBF2F2237B6262A3
:1028900002FB03F3A1FB0313DB0BA362036800211C
:1028A000DB6B9847236A5B690122DA60019BA375A1
:1028B00005B0BDE8F08FC3880293DB0790D4D0E960
:1028C0000760D4E7206ACEE700F0014030600040A6
:1028D000818080800024F40003000100006000403B
:1028E0002DE9F8430546817DFFF770FFEB699A6893
:1028F000002A20DD304FDFF8C490DFF8C4800024C8
:102900000AE05A6C4A4549D15B68434543D1EB69BB
:102910009A680134A2420EDD1B6953F824603368C3
:102920009A68BA42EDD0002130469047EB699A6828
:102930000134A242F0DCDA68002A20DD1E4FDFF805
:102940007C90DFF87C8000240AE05A6C4A452DD147
:102950005B68434527D1EB69DA680134A2420EDD9A
:102960005B6953F8246033689A68BA42EDD000215D
:1029700030469047EB69DA680134A242F0DC286AFD
:1029800003685B6A9847286A03689B6A9847012333
:10299000EB75BDE8F88330469847B8E7002130462C
:1029A00090473368B0E730469847D4E70021304677
:1029B00090473368CCE700BFE52600009D26000065
:1029C00065170000C37D03B17047FFF789BF00BFE3
:1029D000F8B515460E46526829689DF818700446E9
:1029E00005F020F8EA68134B13492360052A4FF0DD
:1029F0000003C4E90756A7750C602376E3752375B9
:102A0000E3620FDC326819463046936B9847206AC0
:102A100003684FF47A51DB6C9847226AE37D0749DB
:102A2000D1600BB12046F8BD2046FFF759FF204684
:102A3000F8BD00BF281F0100BC150020312D00008B
:102A400010B5034661B102680E49126B0E4CC37D8E
:102A500023708A4213D10BB1FFF760FE002010BD36
:102A6000094A1278002AF9D01A680849D26A8A42BB
:102A700005D1DB7D002BF1D1FFF732FFEEE7904768
:102A8000002010BDC1270000E61C0020C529000061
:102A90002DE9F04FC769037DBA680569934285B097
:102AA000044680F21B813A699E4E52F82300036867
:102AB0001B68B34240F03281D4F82080D8F814204B
:102AC00001235360227D617D1A44B2FBF1F001FBCA
:102AD00010222275B86882425EDAD7F80C90B96984
:102AE000B9F1000F01EB42014BDDAA1DD8F81450DB
:102AF000009525890195CDE9027800FA03FEDDE90C
:102B00000078A07DCDE9002600F0FD0004F1300C36
:102B1000CD18227E032A03D8DFE802F002B2A3BF59
:102B20004A78009E15F801AC08FB026212F80A20F0
:102B300018B9002A00F0BF80FF22A66A03F5A87A20
:102B400006FB02F247F82A209A46002A00F0B880D5
:102B50009CF90020920002F1804202F5C042D2F8B6
:102B600010B52BF4801BC2F810B5D145714403F1A8
:102B700001030CF1010C7544CBDCDDE90278019E08
:102B8000227D3B6953F8220003681B68B34240F082
:102B9000BC80D8F814305EE0626AD8F800300021BA
:102BA000DB6B920040469847E169CB68002B27DD3C
:102BB0000025DFF8749104F13007A84602E0CB68E5
:102BC000AB421DDD4A6917F9013B013502EB850275
:102BD00003F5A27352F8040C49F82380D4E90823C2
:102BE00005F5A87C52699B0042F82C3003681B68ED
:102BF000B342E4D001219847E169CB68AB42E1DC04
:102C00000B69186803681B68B34240F083800B6946
:102C100094F930201B6844491B7C02F5A2721B0208
:102C200043F0011341F8223094F9303094F9351013
:102C30003E4A9B00A23103F1804303F5C24342F8B0
:102C40003130236A94F935105B69A23102EBC1027D
:102C500003F1440151600122DA601A6005B0BDE859
:102C6000F08F91F801A06289009EA2EB0A0215F88C
:102C700001AC08FB02626FEA0A0A12F80A2057E761
:102C800015F8012C009E91F801A002FB0882324445
:102C90006FEA0A0A12F80A204AE7628915F801ACBD
:102CA000009E013AA2EB0A0208FB026291F801A021
:102CB00012F80A203CE703F5A8729A4647F822006A
:102CC0009CF90020920002F1804202F5C042D2F845
:102CD00010B54BF4801BC2F810B546E7D0E90823C5
:102CE0005169104E9A00D1F84435817DC3EB03231E
:102CF000B3FBF2F3C288C3F1FF0342F00302C362E5
:102D0000C280FFF763FDE769D6E601219847236A91
:102D10005B69A0E700219847E16978E700219847BF
:102D2000E769C9E6952600000060004000F0014018
:102D3000024B186808B1FFF7ABBE7047BC15002006
:102D4000103009F021B900BF10B5044604F022FE8E
:102D500040B9237B616A044A01FB03F3A2FB03230E
:102D6000DB0BA36210BD00BF81808080C160704713
:102D700003207047006B07EE900AF8EEE77A17EE33
:102D8000900A70470F4B03F10802343310B5044624
:102D9000C0E90023243009F0C3FA04F1200009F04F
:102DA000BFFA04F11C0009F0BBFA04F1180009F0A5
:102DB000B7FA054A62600023201D638103F044F9DD
:102DC000204610BD601F0100042B0100114B03F1D0
:102DD0000802343310B50446C0E90023243009F05A
:102DE0009FFA04F1200009F09BFA04F11C0009F09D
:102DF00097FA04F1180009F093FA074A6260002379
:102E00006381201D03F020F920460EF016FE2046B7
:102E100010BD00BF601F0100042B010038B5124B2C
:102E200003F108023433044640F8042C40F8203BF8
:102E300009F076FA04F11C0009F072FA04F11800A6
:102E400009F06EFA04F1140009F06AFA074A2260E8
:102E50000023251FE380204603F0F6F828460EF0F5
:102E6000ECFD284638BD00BF601F0100042B0100A7
:102E700038B5114B054603F108023433044640F8D7
:102E8000042C45F80439203009F04AFA04F11C00FA
:102E900009F046FA04F1180009F042FA04F11400AE
:102EA00009F03EFA054A226000232046E38003F041
:102EB000CBF8284638BD00BF601F0100042B01007D
:102EC000F0B5264B036004460025254B436083B0D4
:102ED000218104306581164603F048F8214B2360B8
:102EE0002C33636004F1100003F096FF04F11C071B
:102EF00001224FF4007104F1180009F0E9F9384695
:102F000009F0E0F904F1200009F0DCF9294601227A
:102F100004F1240009F0DCF900234FF4007163652B
:102F20000122E163C4E90A55E560256401A809F0BE
:102F3000CFF901A9384609F0FBF901A809F0F0F929
:102F4000094A6263AE424FF000032046C4E91355BC
:102F5000C8BF2663238703B0F0BD00BF5430010013
:102F6000042B0100681F010000C07F4443895B07F8
:102F700070B5856A04465DD42B46216A002B64D067
:102F80005033081D4A88A362024493420ED3D1ED08
:102F9000037AA062F5EEC07AF1EE10FA3CDA04F1A1
:102FA000100004F021F8002836DCA36A93ED027AC1
:102FB000DFED277A19685A68A264B5EEC07AF1EE9F
:102FC00010FA48BFB1EE477AC7EE276A0020616465
:102FD000206504F1580104F16405D4ED0C7AF8EE93
:102FE000E77A67EEA67AFDEEE77AF8EEE76AC4EDD7
:102FF000137ADA699861012AB8BF012207EE902A94
:10300000B8EEE77ADA61C6EE877A1433E1EC017A3A
:103010008D42EED1002070BD0026A66204F124018D
:1030200004F1200009F084F9A81BC4E9136618BF55
:10303000012070BD0023836200F12401203009F0DB
:1030400077F9A36A216A002B9AD10B1D184699E7DC
:1030500000007A442DE9F04FD1E9137E2DED088B65
:1030600001F118034FF0000B9FEDB68ADFEDB6AA11
:103070009FEDB6AA0BEE903A0BEE100A8BB00C4601
:103080005D467046B842034632D0628912F00402AF
:103090002ED10492B8424DDB6289920740F115812E
:1030A000049B002BEED0AB46002D00F03F81D4ED09
:1030B0000D7A228FB6EE007A67EE877A5545FCEEE0
:1030C000E77A17EE903A43EA02039BB203D22BF859
:1030D000023BDA45FBD81BEE901A1BEE100A09F0F2
:1030E00015F91BEE100A0BB0BDEC088BBDE8F08F94
:1030F0002046FFF73BFFE76C6389002F40F09D807F
:10310000002800F0F280E56223F0040363810523C8
:10311000236401231A46218906A808F0B7FD04F1AB
:10312000100003F0F5FED4E913700122B842034603
:103130000492B1DA002D00F0CB8006AA019204F1CE
:103140005802029204F1640BD4ED127AD4ED0D8A88
:1031500094ED117AA16ADDF808C0DDF804E068EEAC
:10316000A78AD4ED0C7A27EE087AF8EEE77A68EEB3
:10317000AA8A87EE279A0E46F0EE4A9AE8EECA9A95
:10318000D6F81880F269BCEC017A07EE908AF8EE66
:10319000E77A013A67EE877A9045FDEEE77A06F125
:1031A0001406EEEC017A08BF4EF8047CE345E7D143
:1031B000DDE90676089ABE42A8BF3E469642A8BF01
:1031C00016469E4240DDAA4585D0D4ED157AFDEE27
:1031D000E77AD1E9033017EE901A984707EE900A84
:1031E000F8EE676AB0EE697AA8EEA67A206D228FB3
:1031F000D4ED157ABCEEC77A79EE277A17EE101A5D
:10320000F4EEC87A431C1143F1EE10FA25F8021BC4
:1032100018462365C4ED157A08DD77EEC87AF4EE1A
:10322000C87AF1EE10FAF8DCC4ED157AB3420BDA85
:1032300055453FF450AFA16AC7E713F004025CD0D4
:1032400000283FF461AF5EE79C46BC4586460DF121
:103250001C094FF014084FF00006204608D0013634
:10326000032E08F1140828D059F8047BBC45F6D188
:10327000826A06EB860102EB810389000391D3E9A0
:1032800006718F424FEA8604E9DA5B6902EB0801B6
:103290004BB1059098470598039B826AD0F850E09F
:1032A0001344F4469F69344402EB8402013601372B
:1032B000032E976108F11408D6D104466346E76CE3
:1032C000674570463FF740AFEAE6002D7FF4E8AE71
:1032D000E56AB5B1A2690021E16202F1040A5288EF
:1032E000874292443FF729AFDAE659073FF50CAF22
:1032F000206D012304930346CCE6206D049203461F
:10330000C8E606AD0122E16B284608F0E1FF294638
:103310001BEE900A09F00CF8284609F001F8A269A2
:10332000206DE76C151D0346AA46D8E706A808F0ED
:10333000C9FF1BEE900A06A908F0FAFF06A808F0DC
:10334000EFFFC8E6000080440000803A000000441F
:10335000F0B50C4601F11C0785B03946064608F069
:10336000D5FFE36A6D4633B128462146FFF772FE6A
:10337000284608F0D5FF0023E36204F1180138461F
:1033800008F0D6FF21462846FFF764FE284608F0DD
:10339000C7FFE06803681B689847236C002B02DDB9
:1033A000013B236413B1304605B0F0BD21890123F0
:1033B0000222284608F06AFC304605B0F0BD00BF86
:1033C000438919B143F002034381704723F002039C
:1033D0009BB24381704700BF01607047704700BFD8
:1033E00070B5664E664D674C6749304609F050F837
:1033F0003046664E2A4621460EF01AFB6449304696
:1034000009F046F83046634E2A4621460EF010FB7E
:103410006149304609F03CF83046604E2A46214664
:103420000EF006FB5E49304609F032F830465D4E3C
:103430002A4621460EF0FCFA5B49304609F028F88E
:1034400030465A4E2A4621460EF0F2FA5849304686
:1034500009F01EF83046574E2A4621460EF0E8FA8B
:103460005549304609F014F83046544E2A46214654
:103470000EF0DEFA5249304609F00AF83046514E55
:103480002A4621460EF0D4FA4F49304609F000F89A
:1034900030464E4E2A4621460EF0CAFA4C49304676
:1034A00008F0F6FF30464B4E2A4621460EF0C0FA91
:1034B0004949304608F0ECFF3046484E2A4621463E
:1034C0000EF0B6FA4649304608F0E2FF3046454E67
:1034D0002A4621460EF0ACFA4349304608F0D8FFA0
:1034E0003046424E2A4621460EF0A2FA4049304666
:1034F00008F0CEFF30463F4E2A4621460EF098FA9D
:103500003D49304608F0C4FF30463C4E2A4621462D
:103510000EF08EFA3A49304608F0BAFF3046394E7E
:103520002A4621460EF084FA3749304608F0B0FFAB
:103530003046364E2A4621460EF07AFA3449304655
:1035400008F0A6FF3046334E2A4621460EF070FAA8
:103550003149304608F09CFF3046304E2A4621461D
:103560000EF066FA2E49304608F092FF2A462146B0
:103570003046BDE870400EF05BBA00BFEC1500208D
:103580001000002041C40000B01F0100C015002041
:10359000B81F0100E01500202821010004160020BA
:1035A00030210100E41500200C2201000816002043
:1035B00014220100C4150020F0220100D4150020BF
:1035C000FC220100D815002090230100F4150020F2
:1035D00094230100E8150020282401000C16002087
:1035E00030240100F8150020C4240100CC1500206F
:1035F000CC240100F015002060250100C815002032
:1036000068250100FC150020FC250100D0150020D4
:1036100004260100DC1500205026010000160020C1
:10362000582601006FF47D70704700BF6FF47D7005
:10363000704700BF6FF47D70704700BFC08800F016
:103640000500003818BF0120704700BFC08800F097
:103650000A00003818BF0120704700BFC08810F072
:10366000030018BF01207047C08800F00C0000382C
:1036700018BF0120704700BFC088C0F3802070478A
:103680006FF47D70704700BF6FF47D70704700BFAE
:1036900003684FF47A729B6B02FB01F1184700BF7D
:1036A0006FF47D70704700BF6FF47D70704700BF8E
:1036B00008B50368DB6B9847024BA3FB0030800919
:1036C00008BD00BFD34D62106FF47D70704700BF1E
:1036D000C1600020704700BF6FF47D70704700BF6D
:1036E0006FF47D70704700BF0A717047704700BF6C
:1036F000704700BF006B7047C06A70470120704779
:1037000010B504460EF099F9204610BD438B990779
:1037100010B5044606D5C36C5BB110BD23F002039F
:103720009BB26383E26C002AC4BF43F0020363834D
:1037300010BD05F009F9E36BC01A61F100016528BD
:1037400071F10003638BE9D29A07EBD510BD00BF7E
:103750000B4B10B503F1080103F18802AC330446AA
:1037600001604261C361283008F0DAFD054A6261F8
:10377000002304F11400638302F066FC204610BDB0
:103780003C280100042B010038B50C4B03F1080163
:1037900003F18802AC33044640F8141C02608360D5
:1037A000143008F0BDFD064A226000232046A4F133
:1037B0001405E38002F048FC284638BD3C2801008F
:1037C000042B0100026838B593690D4612498B42FB
:1037D000044617D1C38803F005031BB153680F4A91
:1037E000934201D10E4838BD20469847B5FA85F37B
:1037F0005B098342F6D123680A4A1B68934206D1CB
:10380000002038BD98470028ECD02268E6E729461A
:1038100020469847002038BD3D360000651700005F
:1038200012FCFFFF9526000002680849D26B8A420D
:1038300008B505D1C06A064BA3FB0030800908BD5E
:103840009047034BA3FB0030800908BDF936000008
:10385000D34D6210012070470D4B10B503F10801E4
:1038600003F18802AC33044601604261C361283031
:1038700008F056FD074A62610023638304F11400D7
:1038800002F0E2FB20460EF0D8F8204610BD00BF43
:103890003C280100042B010038B50E4B03F1080150
:1038A00003F18802AC33044640F8141C02608360C4
:1038B000143008F035FD084A22600023A4F11405F5
:1038C000E380204602F0C0FB28460EF0B6F82846FA
:1038D00038BD00BF3C280100042B0100C3889907B4
:1038E00010B5044606D5836B5BB110BD23F002030F
:1038F0009BB2E380A26B002AC4BF43F00203E380C3
:1039000010BD05F021F8A36AC01A61F10001652815
:1039100071F10003E388E9D29A07EBD510BD00BF2F
:103920001B4B70B5044603604FF48073C3800025C1
:10393000184B228102202071636104F11400257468
:10394000E560A5610E4602F011FB134B266203F100
:10395000080103F18802AC3321606261E361012256
:103960004FF4007104F1280008F0B2FC638BA26AE6
:10397000E56200218020043243F4804320636562C5
:10398000E5636264A164E5646383204670BD00BFA3
:10399000D0270100042B01003C28010038B5856ABE
:1039A0002DED028B6A8804460435002949D0154460
:1039B000636B002B42D007EE903ADFED2C6A9FED4F
:1039C0002C6AF8EEE77A86EEA77ADFED2A6A67EED0
:1039D000067AC7EEA68A636C9D4228D99FED248A99
:1039E000D4ED127AFDEEE77A002017EE901A08F077
:1039F000ADF808B194F84C00636C1870D4ED127AED
:103A0000636C78EEA77A0133F4EEC87AF1EE10FA1F
:103A10006364C4ED127A08DD77EEC87AF4EEC87AF2
:103A2000F1EE10FAF8DCC4ED127AAB42D8D3BDEC5B
:103A3000028BD4E90B23C4E90D2338BDDFED0E8AD8
:103A4000C9E7D0E90F315B1A07EE903A9FED0B7A88
:103A5000F8EE677A67EE877AFDEEE77A17EE903A2E
:103A60009342D4BFED18AD18A2E700BF00247449FB
:103A70000000804400442C470000000078C2B93C9C
:103A800010B5044604F060FFE36AE06303B1236B02
:103A9000E36400212046FFF781FF638BDB0700D53D
:103AA00010BDFCF7FBFE04F11C01074A206A8023CD
:103AB000FEF72AFD628B016842F00102096860622C
:103AC0006283BDE81040084700442C47B1F5806F81
:103AD0000DD8B1F5007F08B5C8BFC1F58061802958
:103AE000A8BF80210163FFF7CBFF002008BD6FF462
:103AF0007A70704708B5C162FFF7C2FF002008BDA9
:103B0000026810B54FF47A74926B04FB01F1054C16
:103B1000A24204D1C162FFF7B3FF002010BDBDE88F
:103B200010401047F53A000070B50C4682B00546CB
:103B300008F0C8FB638B9B070DD4A36A043363644E
:103B400004F002FF636A20641A68184613689847F5
:103B5000284602B070BD04F128063146284608F018
:103B6000E7FB20460121FFF719FF01224FF4007106
:103B700001A808F0ADFB01A9304608F0D9FB01A867
:103B800008F0CEFBD9E700BFA1F11C01FFF7CCBFC5
:103B90000048704704290100084603F0BDBB00BF80
:103BA000084602F0EBBF00BF82B010B58C4684B06F
:103BB00049688646DCF800000DF1080CACE803000B
:103BC00006A981E80C00039BDA070EEB630C12D503
:103BD0005A10029B5EF80220D45808AB93E8030009
:103BE0008DE8030006AB0CCB6046A04704B0BDE8EF
:103BF000104002B07047029CEFE700BF82B08DE832
:103C00000C00002100F50C6002B0FCF753BE00BFB1
:103C100082B010B502A981E80C00BDF80A30152B5E
:103C2000044610D8022B1BD9033B122B18D8DFE80F
:103C300003F023171B351717171717171B1717171D
:103C4000171717173D0040F6B932934208D100F517
:103C50008054D4F81C01BDE8104002B007F052BAFD
:103C6000BDE8104002B07047BDE81040D0F8A80889
:103C7000036802B01B6B1847002100F2EC7005F0DE
:103C80009BFB04F60C00002105F096FB04F62C00CB
:103C9000BDE81040012102B006F0B4BCBDE8104000
:103CA000D0F8AC08036802B09B6A184700F580544E
:103CB0000121D4F81801BDE8104002B007F03AB86D
:103CC00010B500F5D5642046FDF790FB18B12046ED
:103CD000FDF794FB18B9BDE810400BF079BE204603
:103CE000FDF71CFD0028F6D110BD00BF02F03ABA66
:103CF000084601F065BD00BF0BF06CBE0BF070BE56
:103D0000064A1368591E11603BB9054A116821B172
:103D10004189136021F4005343817047140000204F
:103D20000000002002F01EBA064A1368591E1160F6
:103D30003BB9054A116821B1C188136021F40053D1
:103D4000C380704714000020000000202DE9F04FD0
:103D50002DED048B85B0044601F0ACFBAF4B002782
:103D6000C4E90137201D02F001F9AD4B236003F1D6
:103D70003C0004F10C0604F12408AA496060092201
:103D800030460BF093FD04F13C05A7490A2240465A
:103D90000BF08CFDA5491A2228460BF087FD314611
:103DA00001233A4604F1580004F02CFE04F190007F
:103DB00006F0F2F804F1B80A04F521724146222314
:103DC000039250465B2208F0D3FD9DED038A2946FD
:103DD000122204F5317518EE100A0BF0B5FA04F250
:103DE0000C63514618EE102A2846039300F09AFA05
:103DF000DDED039A8E4B04F2746804F5B76204F5A6
:103E0000B46119EE900A0BF0EDF804F5A26204F526
:103E10009F61404601F0C4FF04F58D6204F5906196
:103E200004F28C6001F0BCFF04F5D569282233460A
:103E3000009241462A464846FDF718F804F5DE612F
:103E40002A462A230D46009341464B462846FDF755
:103E5000C5FC4FF0805309EE105A04F21C751B6923
:103E600004F22C7601224FF4FE212846FEF708FCCE
:103E700029463A463046039605F0F6FA0523C4F87B
:103E80006037C4F86437C4F86837C4F86C37D4F8BE
:103E9000E835C4F84C37D4F8EC35C4F85037D4F8CA
:103EA000F035C4F85437D4F8F435C4F85837D4F89A
:103EB000F835C4F85C375F4BC4F8783704F5A56370
:103EC000C4F8383704F5A863C4F83C3704F5AB638D
:103ED00004F27C75C4F8403704F5AE632846C4F894
:103EE000443704F5E76604F5B16304F24C7504F554
:103EF000EC6BC4F8483707225946C4F87067C4F819
:103F0000745708EE900AFCF787FE01231A4604F561
:103F10005271CDE9007704F2EC7005F015FA012337
:103F2000022204F57671CDE9007704F60C0005F065
:103F30000BFA03230222012104F62C0006F020FBD9
:103F400018EE102A40F6AC5304F5936104F63C00D9
:103F500006F092FB092104F66C0001F019FD08211E
:103F600004F6940001F0CEFE404600F0F5FCC4F8E3
:103F7000A808404600F078FD039A0092014618EE2A
:103F8000903AD4F8A828C4F8AC0804F50B6000F007
:103F9000F9FD04F599625346019204F5966A04F519
:103FA0009C62009204F53471524604F50C60FCF7F3
:103FB000E1FC19EE903A4A4619EE101A04F5BA6976
:103FC00004F59050FCF798FE678148460AF026FAFF
:103FD000022148460AF022F8B4F8D635164923F4EF
:103FE00080734046A4F8D63509F0F0F956F8040B72
:103FF00001210AF0F1FCB542F8D155F8040B01217A
:104000000AF0EAFCAB45F8D1012150460AF0E4FC85
:10401000204605B0BDEC048BBDE8F08F042B0100F9
:104020004C2901000090004000A0004000A0014089
:104030000020004010290100801A06002DE9F04FF1
:1040400083B0DDE90CABBDF83880002B3CD00746CF
:104050000E4691461D46BAF1000F32D00F2E02D106
:10406000B8F1C00F30D128200DF0E9FC0446103023
:1040700007F05AFE18202680A4F802900DF0DFFC0D
:10408000CDE900AB84466B460246A06003CB4CF8FA
:104090000C5B00233E68D360E360CCF804305060D2
:1040A0009160756848F00208C4E908330C4BA4F825
:1040B0000480384653612146A84740B903B0BDE8A3
:1040C000F08F1BF0010FC9D16FF47A70F6E720462C
:1040D00003F074F820460DF0B0FC0248EEE700BF94
:1040E000A93B000016FCFFFF30B587B000224FF45B
:1040F0008053009204460D4602A811468022FEF726
:10410000BFFA01230E4A01A902A8FEF79FFA019BFC
:1041100073B10B4901236A4602A8FEF743FA04F57E
:104120009050FCF737FE02A8FEF7B2FA07B030BD98
:10413000002DF4D102A8FEF7ABFA07B030BD00BFE6
:104140000C2901004389DA0700F18A80F0B54FF0AD
:10415000804243F00103D2F80024438189B006462F
:10416000002A70D03F4A13680133136000213046A3
:1041700006F19007FFF7B8FF38463B4C02F098FA7B
:1041800004F1F00554F8043F184613B11B681B688E
:104190009847A542F6D1304601F096F9334B0024FA
:1041A000CDE9043404AB93E8030010238DE8030049
:1041B00002932246334640F2FD313846FFF73EFF78
:1041C0002B4BCDE90634C023029308AB13E903005F
:1041D00064228DE80300334640F2FD313846FFF794
:1041E0002DFF244801F0B8FF7289234B42F4C042EE
:1041F000E021728183F809136022A02183F80A1359
:1042000083F81A2383F81B2383F8071383F81C13FE
:10421000802183F8211383F82223402283F801139D
:1042200006F5D56083F8022383F80623FDF746F8E8
:104230003368124A5B6893420CD10A2002F09EFC5C
:10424000204609B0F0BD074B4FF47A701A6003F0B6
:1042500063F88BE730460A219847204609B0F0BD45
:10426000074870470000002050160020113C000055
:10427000FD3B00008D42000000E100E0A13B00009A
:1042800016FCFFFFA0F10400FFF75CBF70B50C4DFA
:104290002B689BB10B4E306880B1EC1C00E030689D
:1042A000617800F20C600AF013FDA31E2A685B1B04
:1042B0009A4204F10104F2D800232B6070BD00BFC4
:1042C000481700204416002010B5084B0360044630
:1042D00000F5517008F024F8054A226000232046BA
:1042E000E38001F0B1FE204610BD00BFAC29010003
:1042F000042B010010B5094B0360044600F5517012
:1043000008F00EF8064A22600023E380204601F000
:104310009BFE20460DF091FB204610BDAC2901000C
:10432000042B01002DE9F04FB54B03604FF000095D
:1043300087B08046C0F80490CDE9021201F016FE65
:104340004046B04B40F80C3B0222032364210AF0A4
:10435000CDF803231A46652108F124000AF0C6F8B7
:1043600008F15400044603230422662108F13C00AE
:104370000AF0BCF808F16C0B03231F2267212046CA
:1043800000940AF0B3F803231C22682158460AF06F
:10439000ADF808F1840608F19C031D460E220323A4
:1043A000692130460AF0A2F808F1B40A0323252255
:1043B0006A21284601950AF099F803230B226B2104
:1043C00050460AF093F803230A226C2108F1CC002E
:1043D0000AF08CF808F1FC07032309226D2108F18B
:1043E000E4000AF083F808F58A7503231E226E2183
:1043F00038460AF07BF8032317226F2128460AF07B
:1044000075F803230C22702108F596700AF06EF8F7
:1044100003231122712108F5A2700AF067F8032323
:104420000122722108F5AE700AF060F803230D2214
:10443000732108F5BA700AF059F803232222742177
:1044400008F5C6700AF052F803231A22772108F5FE
:10445000D2700AF04BF808F5EA7403232022782181
:1044600008F5DE700AF042F8032324227921204661
:104470000AF03CF84A4603237A2108F5F6700AF060
:1044800035F8032314227B2108F501700AF02EF879
:1044900003230522862108F507700AF027F8032375
:1044A00010227C2108F50D700AF020F80323082261
:1044B0007D2108F513700AF019F8032315227E21D7
:1044C00008F519700AF012F8032316227F2108F567
:1044D0001F700AF00BF803230F22802108F52570C6
:1044E0000AF004F803231822812108F52B7009F043
:1044F000FDFF03231322822108F5317009F0F6FF36
:1045000001230622832108F5377009F0EFFF01230C
:104510002822842108F53D7009F0E8FF1922852141
:10452000032308F5437009F0E1FF009BC8F82C3322
:10453000019BC8F8404308F55179C8E9CC37C8E970
:10454000CE65C8E9C9BA484607F0BCFE2E4B0299B1
:1045500019602E4B039A1A6021231325C8F80830DE
:10456000236820465B6C00219847D8F80830013555
:10457000AB4204F11804F3DCD8F8240303680021EB
:104580005B6C9847D8F82803036800215B6C984758
:10459000D8F82C03036800215B6C9847D8F83003E7
:1045A000036800215B6C9847D8F834030368002146
:1045B0005B6C9847D8F83803036800215B6C984718
:1045C000D8F83C03036800215B6C9847D8F80810C2
:1045D0000122114405A807F07BFE05A9484607F013
:1045E000A7FE05A807F09CFED8F80810D8F84433B9
:1045F0000B44002240461A7107B0BDE8F08F00BF9F
:10460000042B0100AC290100781C0020741C002040
:104610002DE9F8438268D0F8443313441A7942F004
:1046200001021A718368002B44DD0025DFF88890B1
:10463000064600F10C04A84613E0D3F8003703F453
:104640004033B3F5003F06D1D6F844332B441A79F2
:1046500042F008021A71B3680135AB4204F1180444
:1046600028DDD6F84433277C2B44204683F8048089
:104670002368DB69984707F01F020028EBD1202F41
:1046800034BF4FF0A0434B4603EB8203D3F800271F
:1046900002F44032B2F5403FCFD1D6F844332B4438
:1046A00001351A7942F004021A71B368AB4204F181
:1046B0001804D6DCBDE8F88300030050F8B5816823
:1046C000D0F844331E4A0B44197921F001011971C5
:1046D0008368D2F80473D2F80413C2F80813002BCD
:1046E0002ADD064600F10C0400250FE011F0080356
:1046F00020464FF0020104BF204619460AF086F911
:10470000B3680135AB4204F1180415DD2368204677
:10471000DB6998470028F3D1D6F844332B44197944
:104720004B07E3D5204603210AF070F9B368013541
:10473000AB4204F11804E9DC014BC3F80473F8BD83
:10474000006000402DE9F04F06463A4883B0994694
:10475000B3689246D0F804230092002BD0F80423CB
:10476000C0F808232FDD884634460025E36894F816
:104770001CB0DB6904F10C0738469847E8B9E368D8
:1047800038461B6A9847C0B1638A13F4007124D07D
:10479000B8F1000F11D0BAF1000F2BD0BBF1200FF0
:1047A0000BF01F0B244A0BF5E07138BF4FF0A0420D
:1047B00052F8211011F4403F27D0B3680135AB42C5
:1047C00004F11804D2DC1B4B0022C3F87C21009AB0
:1047D000C3F8042303B0BDE8F08FB9F1000FECD0AB
:1047E00038460AF013F9B3680135AB4204F11804F6
:1047F000BCDCE8E7384651460AF008F9B3680135F1
:10480000AB4204F11804B1DCDDE7C3F30023C3F1CC
:104810000301384601920AF0F9F8019A012303FADC
:104820000BF3C2F82035B3680135AB4204F118042C
:104830009CDCC8E7006000400003005010B582B067
:10484000062916D8DFE801F0323E4D18181D040085
:10485000816800290DDD0022438A9C0548BF23F4AE
:10486000007302F1010248BF43828A4200F118003E
:10487000F2D1002002B010BDFFF720FF002002B0EF
:1048800010BD002A46D08468002CC8BF0023F0DD8C
:10489000418A11F4007F03F1010300F1180002D0F6
:1048A000116801311160A342F2D1E2E70190FFF7F4
:1048B000AFFE0122019800231146FFF743FF0020BD
:1048C00002B010BD8268D0F8443313441B79DA0774
:1048D00016D5012300221946FFF734FF002002B04D
:1048E00010BDD0F84433826813441B79DB070CD524
:1048F00001231A461946FFF725FF002002B010BD1C
:104900000190FFF785FE0198E3E70190FFF780FE35
:104910000198EDE76FF47A70ACE700BF00207047B4
:10492000002070476FF47D70704700BF6FF47D709A
:10493000704700BF10B5044603EB4300C4E90223EF
:1049400021608000012102F00DFC002360602382C1
:10495000204610BD704700BF2DE9F043364C236858
:1049600013F0010383B005461AD0344C2368DE07E8
:1049700021D5334C334F344E0A2002F0CDFC204673
:1049800009F04CFD0221204609F048FBE3883A7803
:1049900023F48073E380E2B1306803B0BDE8F083B4
:1049A00001222A48114607F005F901232360234C10
:1049B0002368DE07DDD4192285210323204809F06E
:1049C00095FD0123224A23491D4823600DF030F84C
:1049D000CFE7DFF88480326032212846C8F8002013
:1049E00005F020F828B9306801233B7003B0BDE81A
:1049F000F08350200DF023F832230522CDE9003258
:104A000029462246114B814604F0F2FF5420C6F895
:104A100000900DF014F822463C2306248146CDE98F
:104A200000342946094B05F0E7F83168C8F80090D2
:104A3000484602F08DFFD6E710160020141600201D
:104A400024160020E71C0020181600201C16002049
:104A500010000020554900003C16002010B5044607
:104A60000CF0EBFF204610BD10B504460A2002F002
:104A700053FC2046FFF770FF014B186810BD00BFC4
:104A80003C16002082B010B58C4684B0496886463A
:104A9000DCF800000DF1080CACE8030006A981E881
:104AA0000C00039BDA070EEB630C12D55A10029B25
:104AB0005EF80220D45808AB93E803008DE80300A9
:104AC00006AB0CCB6046A04704B0BDE8104002B076
:104AD0007047029CEFE700BF2DE9F04F83B0DDE99E
:104AE0000CABBDF83870002B41D080460E46914685
:104AF0001D46BAF1000F3DD00F2E01D1C02F36D187
:104B000028200CF09CFF0446103007F00DF9182007
:104B10002680A4F802900CF092FFCDE900AB47F09C
:104B20000207A7806B4607460246A06003CB47F802
:104B30000C5B0023D8F80060D360E3607B60916079
:104B4000506075680D495161C4E908330C4B9D42B2
:104B500008D1204602F032FB204603B0BDE8F04FFA
:104B60000CF06BBF21464046A8470028F1D103B0A6
:104B7000BDE8F08F1BF0010FBED1F8E7854A0000B9
:104B8000DD05000030B58DB0044610982160C4E901
:104B900001231B49E06004F0ABFCD0B105460DF1E8
:104BA000140E00696969AA69EB69F446ACE80F0064
:104BB000286A696AAA6AACE807001CE90F008DE858
:104BC0000F0020689EE80E0002F0A8FE28460CF0B8
:104BD00034FF0C4B1D6885B10B4A0023CDE905233A
:104BE00005AB93E80300C0238DE803000293032282
:104BF000234606212846FFF76FFF20460DB030BD43
:104C0000C8290100881B00200551000070B40B6802
:104C10000468D0E90156E31A07EE903A4B68EB1AA4
:104C200006EE903AF8EEE66A8B68F8EEE77A66EE02
:104C3000A66AF31AE7EEA76A012A07EE903AF8EEA1
:104C4000E77AE7EEA76A35DD02EB420201EB82006C
:104C5000B0EE666A0C38D1E90323EB1A07EE903AFE
:104C6000A21AF8EEE77A07EE102A4B69B8EEC77A77
:104C700067EEA77AF31AE7EE077A0C3107EE103ADF
:104C8000B8EEC77AE7EE077AF4EE667AF1EE10FA3C
:104C9000B4EE676A48BFF0EE676AF1EE10FA48BFFB
:104CA000B0EE676A8842D6D176EE667A70BC17EEAF
:104CB000900A7047B0EE666A76EE667A70BC17EEC0
:104CC000900A70472DE9F0472DED068B84B004ACB7
:104CD00004E90E00139A029E1D4600230F469A42D5
:104CE0004FF48061C0E90033C0E90311814683605D
:104CF0008361416140F3D480129CDFED7D8A02EB39
:104D0000420204EB8208A246DAE90023F31A07EE16
:104D1000903ABA1AF8EEE77A07EE102ADAF8083075
:104D2000B8EEC77A67EEA77AEB1AE7EE077A07EED6
:104D3000103AB8EEC77AE7EE077AF5EE407AF1EE70
:104D400010FA00F1B880B1EEE77A0AF10C0AFDEE34
:104D5000C77AF8EEE77AF4EE687AF1EE10FAC8BF97
:104D6000F0EE678AD045CFD19FED619AF7EE00AAA9
:104D7000F0EE499AB0EE49AAB0EE498AD4E90012A1
:104D8000B31A07EE903A7B1A07EE103AF8EEE77A7C
:104D9000A368B8EEC77A67EEA77AE81AE7EE077A53
:104DA00007EE100AB8EEC77AE7EE077AF5EE407A1A
:104DB000F1EE10FA00F18680F1EEE75AC91B921B62
:104DC0005B1B0C3488EEA56A07EE901AF8EEE76AD2
:104DD00007EE902AB8EEE77A07EE903AF8EEE77A17
:104DE00086EEA55AC7EE256A87EEA57A76EE6A7A30
:104DF000BDEEC88ABDEEE76A18EE102A16EE103A2C
:104E00009A42B8BF1A4608EE102AB0EEC56AF0EE14
:104E1000E66AB0EEC77AA045A6EE27AAE6EEA79A04
:104E2000A7EE279AB8EEC88AA8D169EEA97AEAEE69
:104E30000A7AE9EE097AF5EE407AF1EE10FA4BD4EF
:104E4000BDEEE87A17EE103AB1EEE77A4846C9E9C6
:104E50000165C9F80070C9F818308AEE075AC9EE22
:104E6000875A89EE076AF7EE007AF0EE676AB0EECD
:104E7000677AE5EE086AA5EE887AE6EE087AFEEE35
:104E8000CB6ABEEECB7AFEEECB7AC9ED036A89ED32
:104E9000047AC9ED057A04B0BDEC068BBDE8F08755
:104EA0009FED139AF0EE499AB0EE49AAB0EE498A06
:104EB000F0EE497AC8E717EE900A0BF09BFB07EE7D
:104EC000100A42E717EE900A0BF094FBD4E90012A7
:104ED00005EE900AA36871E717EE900A0BF08AFBC3
:104EE000FDEEE87A07EE100A17EE903AAEE700BF43
:104EF000000000002DE9F04F93B0161E1190884677
:104F000040F3FA80002206EB460C0B46740001EBDE
:104F10008C0C15461746D3E900010C330D4453F8A9
:104F2000041C9C4507440A44F5D197FBF6F309930A
:104F300095FBF6F3079392FBF6F30393119B099A03
:104F40001A60079A5A60039A9A6041463246184698
:104F5000FFF75CFE3444D8F80030D8F80410D8F8D5
:104F600008B00A93A8F10C0202EB84026FF0C704A8
:104F7000E41A10946FF0C704641AC3F5C8730B9455
:104F80000D936FF0C704C1F5C87305EE900AA4EB4A
:104F90000B0400200E93CBF5C87305910C9006947A
:104FA0008246019081460F93099B10991944029102
:104FB0000D99CB18089307990E9B0B440493039902
:104FC0000F9B03EB010EDDED027A0A9B17EE901AA0
:104FD000F8EEE74A5D180B9B079964EEA44A03EBD1
:104FE000010C07EE90CAF8EEE77A059B0399B0EE44
:104FF000645AA7EEA75A03EB0C04069B5F1807EE52
:10500000907AF8EEE77AB0EE456AA7EEA76A012E2D
:105010000BEB0700F0EE466A29DD43461969611A79
:1050200007EE901AD968691A07EE101AF8EEE77AB7
:105030005969B8EEC77A67EEA77A411AE7EE077AA0
:105040000C3307EE101AB8EEC77AE7EE077AB4EE23
:10505000676AF1EE10FAF4EE676AC8BFB0EE676AED
:10506000F1EE10FA48BFF0EE676A9A42D6D176EEBA
:10507000C66AF4EEE56AF1EE10FA04D5F0EE665A6F
:1050800082460194A946C837BE45B8D1049B0CF1AD
:10509000C80C6345A5D1029B0899C8339942029375
:1050A00091D1099B4B4508D0019B07930123CDF873
:1050B0000CA00C93CDF8249076E7079B01998B42C6
:1050C00006D0019B07930123CDF80CA00C936BE74E
:1050D000039B9A4504D00123CDF80CA00C9363E701
:1050E0000C9B2BB1119B099A1A60079AC3E9012AFC
:1050F000119813B0BDE8F08F002303930793099331
:1051000074001BE782B02DE9F04F2DED028BF1B05A
:1051100001467CAC642084E80C00069102F0FCF8A7
:105120000522114612A806F085FE964913A806F03E
:10513000ABFE25AB70A900229A60C3E900220C33B4
:105140009942F9D1069C1C92A0688DF874200368DE
:105150001792CDE91822CDE91A229B6ADFF838921E
:10516000984708EE100AA0680368FF215B6A984719
:10517000A0683C3003F0E6FE43F68C42002309921F
:1051800005939B4607930A93099B43F68C429342EF
:10519000A9F1020A00F0BA807B4A9342C0F2B680BD
:1051A000099B002B00F0DE80059A0F2A00F0DA80C0
:1051B000A3F16402089313B209930799734B069DF8
:1051C0002831A3FB0132C820920900FB1212D3B28E
:1051D0006868079302F0E2FA0446686802F0ECFAA5
:1051E00014F52A7FC0F2B28014F1C80FC0F2B68065
:1051F000B4F52A7F00F3C180C82C00F3218102237B
:105200000C93984610F52A7FC0F29C8010F1C80FCD
:10521000C0F2A080B0F52A7F00F3AB80C82800F36D
:10522000138102230D930B93594D12A817AE06F06C
:10523000ABFE2C460A9B374604E002344C450CD0AA
:1052400017F8013F012BF8D162782178FF2312A8CB
:10525000023406F0A3FE4C45F2D1079BDDE90C12A7
:1052600012A806F09BFE089B002B02DB059B0F2B70
:1052700009D900230093069B9868002310301A4632
:1052800012A906F0A7FE00231A460EAF0B9B05E0FD
:10529000554506F101062AD015F8022F9045F7D1A1
:1052A0006A789A42F4D125A90BEB4B0401EB8404F4
:1052B000317801294FF00002EAD00893069B384666
:1052C000196802F047FB059A0132D3B297E807004C
:1052D0000BF1010B059355454FF00103337084E842
:1052E0000700089B5FFA8BFB06F10106D4D164200E
:1052F00002F012F8BBF1180F50D89DF85C300A93F9
:10530000099B43F68C4293427FF446AF069CA0680B
:10531000FDF716FDA4681F491EA807F0B9F83C3434
:1053200078220DEB0201204603F04EFE1EA807F086
:1053300087F843F68C4343F62842CDE90832002330
:1053400005933AE700230D930B936DE700230C932D
:10535000984657E701230D930B9365E701230C93C0
:1053600098464FE7069B98683C3003F0EBFD099B9D
:105370001EE704230D930B9356E704230C939846E2
:1053800040E700BFD4290100D18AFFFF1F85EB5100
:10539000342A01001C2A0100662A010014AC5A4676
:1053A00025A92046FFF7A6FD25ABCDF804B0009354
:1053B00094E80E001EA8FFF785FC21AB0FCB8DE80B
:1053C0000F00069D1EAB28680ECB02F0A7FAE86816
:1053D00020B11F491EAA1C2304F0D0F8069EB06815
:1053E000FDF7AEFCB06813A900F13C05204606F0BD
:1053F00041FD002340F2DC52CDE9003221461A463D
:10540000284603F0BBFD204606F0C8FC4FF47A7036
:1054100001F082FFB068FDF793FCB068036818EEF6
:10542000101A5B6A984713A806F0B8FC12A806F099
:10543000B5FC71B0BDEC028BBDE8F04F02B0704717
:1054400003230C939846DDE603230D930B93EBE6C1
:10545000C829010084B003AA01900DF107030DF1E2
:10546000030013F8011902F8011B8342F9D10398D4
:1054700004B0704740BA82B080B202B0704700BF3B
:10548000BFF34F8F0549064BCA6802F4E06213432D
:10549000CB60BFF34F8F00BFFDE700BF00ED00E022
:1054A0000400FA05704700BF08B5084601F038FF50
:1054B000002008BD024A034901601060704700BF28
:1054C00044160020882A0100104A1149012330B4F3
:1054D0004FF0040C13600024C2F80041D2F80031F0
:1054E000002BFBD0D2F80835BCF1010C43EA0121B6
:1054F000F2D10368074C9B690125A342556003D193
:1055000030BC084601F00CBF30BC184700D000404A
:10551000ED5EBC0BA9540000002070472DE9F04F50
:1055200089B09E4C07900AF04BFA9D4B9D49002292
:10553000C3F81025C3F81425C3F81825C3F81C2593
:10554000C3F82025C3F82425C3F82825C3F82C2543
:105550001C230D1D4FF0A04203F5E07303208D4284
:1055600042F823000ED011F8013F1F2B86BF03F035
:105570001F0322464FF0A04203F5E0738D4242F82C
:105580002300F0D1884A854C1523151D4FF0A0410A
:1055900003F5E0730320954241F823000ED012F882
:1055A000013F1F2B86BF03F01F0321464FF0A04190
:1055B00003F5E073954241F82300F0D17A48774D26
:1055C00015234FF0A041012404FA03F39042C1F8DF
:1055D0000C350ED010F8013F1F2B86BF03F01F03C0
:1055E00029464FF0A04104FA03F39042C1F80C356C
:1055F000F0D16E4B6E4A1B6812680693DFF89CB1BF
:105600000492002303934FF0010A049B002B00F047
:10561000B880039A934240F3B280664B0193002313
:1056200002931B264FF0A041019B4FF000095A1C2A
:10563000B9F1270F059203F1050876DC039B40F6CC
:105640009F72042B49F6404E49F63F43C4BF4FF4C6
:105650007A6E1346DDF814C0534C774649F6404243
:10566000B64604254EFA05FE1EF0010F524E4FF0CD
:105670001C0012D01F2846D84FF0A04E0AFA00F0A6
:10568000013DCEF80C0512D31CF801EC16F8010B05
:105690004EFA05FE1EF0010FECD11F2837D84FF04F
:1056A000A04E0AFA00F0013DCEF80805ECD25FB139
:1056B00020781F2886BF00F01F005D464FF0A045F0
:1056C0000AFA00F0C5F80805002002E00130904217
:1056D00012D09842D1F80455F8D125781F2D86BFF5
:1056E00005F01F055E464FF0A04601300AFA05F5A9
:1056F0009042C6F80C55ECD1C44504F101040AD01F
:105700001CF801EBADE700F01F00DE46B6E700F045
:105710001F00DE46C5E709F10109B9F1300F09D0D4
:10572000019BB9F1270F1E7888DD4FF0FF334FF052
:10573000000E8FE7029B032B2BD0029B3BB3012B68
:1057400014BF01230A23079A92FBF3F3029A1B4822
:105750000132029280FB0320DA17C2EBA00202EBB7
:105760008202A3EB4203303305226FF09F005BB24D
:1057700012FB0303069AD018D65C019054E7FFF79A
:105780007FFE0C4B0193049B02931B264AE7642384
:10579000D9E7039B0133039337E700BF00030050B1
:1057A00000600040782A0100702A01006800002093
:1057B00040160020682A0100792A010067666666A3
:1057C00008B5FFF7ABFE00BF4FF0FF30704700BFDA
:1057D000054B186828B10368044ADB69934202D17B
:1057E00070470AF0F5B8184744160020A554000089
:1057F00010B5044A026000230446C38000F024FC74
:10580000204610BD042B010010B5064A026000239B
:105810000446C38000F018FC20460CF00EF9204628
:1058200010BD00BF042B0100F8B545690446002DEA
:105830005ED04FF0804200210123C2F800111360B6
:10584000D2F80031002BFBD0637A2E4A2E4DD35C68
:10585000C5F80C35217A2D4BC5F808150022C5F87E
:105860001025C5F81C35A67AFFF756FE10B9A672AA
:10587000C5F82465244BDFF89CC06769244D0020DF
:1058800001210826C3F82C050222C3F830154FF673
:10589000FF7EC3F81465C3F818C5DFF87CC0C3F8F1
:1058A0003425C3F83CE5C3F838C54FF0180CC3F8ED
:1058B00054C5C3F80475C3F80463C5F880212A6091
:1058C000D3F8002242F01002C3F80022C3F800010E
:1058D0005960D3F80021002AFBD0E288012142F46C
:1058E000804200200A43C3F80C019960E280F8BDB1
:1058F0002C200CF0A4F82C22064629460CF0FFF8C8
:10590000666196E7A82A010000100040746962757C
:1059100000E100E02000040221100100F0B51B4F5F
:1059200085B0054600F118062C698CB1E278012A91
:1059300010D0022A05F1200024D001230A21684654
:1059400006F0A4F92B69A3420AD01C46002CEDD125
:1059500005B0F0BD304600F043F92B69A342F4D105
:105960000222C7F88020BFF34F8FBFF36F8F2B69E0
:105970005B6A2B61EB7A013BEB7220463A600CF0DC
:105980005CF8D1E700F054F9DCE700BF00E100E08B
:10599000104B70B500250446C0E900350E4600F0F6
:1059A000E5FA20460C4B40F8183B214600F014F96C
:1059B000214604F1200000F037F940F20772C4E9F3
:1059C0000225064BA680C4E90455E5801C602046EC
:1059D00070BD00BF042B0100BC2A01004816002046
:1059E00038B5436943B3C27A032A044621D8C28832
:1059F000D2074CBFC268124A9A622C200CF01FF8E2
:105A00002C22002105460CF07AF8636900225A62C4
:105A100023695BB11A465B6A002BFBD16369536251
:105A2000E37A65610133E372002038BD6369236165
:105A3000F6E76FF47B7038BD6FF47A7038BD00BF45
:105A400016FCFFFF1A4BD3F8002122B100210122DE
:105A5000C3F800119A60164BD3F80C2182B10022D2
:105A6000C3F80C21D3F8001401290AD0114B1B688C
:105A7000D988C90700D5DA600D4B01229A607047BA
:105A8000704710B50B4CD3F848352068C288D20750
:105A9000C3F1000300D5C360FFF7A2FF2268044BE7
:105AA0005269C3F80425024B01229A6010BD00BF61
:105AB000001000404816002010B50446FFF72CFDEA
:105AC000F0B9E38813F0010301D1184610BD0D4B66
:105AD0000222C3F88020BFF34F8FBFF36F8F0A4AB3
