:10000000000002201D1701004517010047170100DD
:10001000491701004B1701004D17010000000000B7
:100020000000000000000000000000004F17010069
:10003000511701000000000053170100551701007F
:100040005717010001740000BD1501008115010062
:100050009515010057170100ED000100DDEC0000CF
:10006000A5110100AD110100B511010057170100E4
:1000700057170100571701005717010057170100C4
:1000800057170100571701005717010057170100B4
:1000900057170100571701005717010057170100A4
:1000A0005717010057170100BD110100C5110100CC
:1000B0005717010057170100000000000000000062
:1000C000571701005717010057170100A915010024
:1000D0005717010057170100571701005717010064
:1000E000E515010000000000000000000000000015
:1000F000000000005717010000000000D1150100AA
:1001000000000000000000000000000000000000EF
:1001100000000000000000000000000000000000DF
:1001200000000000000000000000000000000000CF
:1001300000000000000000000000000000000000BF
:1001400000000000000000000000000000000000AF
:10015000000000000000000000000000000000009F
:10016000000000000000000000000000000000008F
:10017000000000000000000000000000000000007F
:10018000000000000000000000000000000000006F
:10019000000000000000000000000000000000005F
:1001A000000000000000000000000000000000004F
:1001B000000000000000000000000000000000003F
:1001C000000000000000000000000000000000002F
:1001D000000000000000000000000000000000001F
:1001E000000000000000000000000000000000000F
:1001F00000000000000000000000000000000000FF
:1002000030B5214C04600325C0F81458002400F6D2
:100210001C0EF7EE007A0225C0E90144C0F8185818
:10022000CEED007AC0F8204800F624044FF0000C10
:10023000C4F800C09FED127B012480F828485C1EA2
:1002400000F5036E00F5046C032C8EED007B0CEDC5
:10025000027B05D85C1C6410C0F81438C0F818483C
:1002600092B207EE902A00F50162F8EE677A00F686
:100270000C031160C3ED007A30BD00BFAFF3008006
:1002800000000000000000003CF504000000000039
:10029000F0B585B0012A0D9C02D1002005B0F0BD5B
:1002A0001D469FED157B0C9B009302AB0F460193FF
:1002B0002946DDE90A238DED027B064601F064F94B
:1002C0000028EBD1DDE90201231D224645F0CCFDDB
:1002D0000A9B2A691B69C4E905230C9B1A69E26120
:1002E00004F10C0300930C9A04F1080339463046DC
:1002F00045F0D0FE05B0F0BD000000000000000099
:100300002DE9F04FC468236887B0054692469B6983
:10031000002220460F469847002835D023683946EA
:10032000DB690646002220469847074600284DD044
:1003300030783B78834211D1092B31D0072851D036
:100340002368314620465B6A9847236820465B6AEB
:1003500039469847002007B0BDE8F08F6E6945F038
:10036000B7FC0446387845F0B3FC7549754B764ABE
:10037000CDE90031CDE90240744928462C23B0472D
:10038000012007B0BDE8F08F714B6C696E4A009395
:10039000284670492723A047012007B0BDE8F08F09
:1003A0003B6913F1800F35D06B4A6C486FF07F01C9
:1003B00003916C696A490090CDE901232846624A9D
:1003C0002E23A047012007B0BDE8F08F654B6C6974
:1003D0005D4A009328465F492A23A047012007B0C1
:1003E000BDE8F08F3369002B5BD1D7F810B0BBF1BB
:1003F000000F30D0CDE902B35B49584A6C694723FE
:10040000CDE900212846504A5549A047012007B0B0
:10041000BDE8F08FF0684EF007F8544B00224EF024
:100420005BF85246336942F80C3B4BF08DF9504B68
:1004300000224EF051F84BF0BFF94EF0FDFADAF819
:100440000C10CAF808001F22042045F047FDCAF826
:100450000400307872E7F06804A945F07BFD049B46
:100460000C33CAF80C3053BB48B3CAF808B0F8686C
:1004700005A945F06FFD002853D0059B13F10F0F20
:100480003FF45EAF3B4A3C486FF00E0103916C694C
:1004900033490090CDE9012328462B4A6723A04722
:1004A000B4E7314A3548002103916C692C4900902A
:1004B000CDE901232846244A4623A047A6E7F06851
:1004C0004DF0B2FF2E4B00224EF006F82D4B0022CD
:1004D0004EF002F80023CAF80C3017A3D3E900232A
:1004E000804689464EF074FAA0B142464B464046DB
:1004F00049464DF03BFE10A3D3E900230BF1010B5D
:10050000804689464EF064FA10B1BBF11F0FECD162
:10051000CAF80CB0404649464EF08EFACAF80800B8
:10052000A5E7194B6C69084A00930A4965232846D8
:10053000A0476BE7AFF3008000000000C0FFCF4092
:1005400084130500C0130500384D05004C13050049
:10055000541105003C110500D44D0500F84D05006F
:10056000FC12050054170500E41D05000000A04121
:100570000000E041704E0500884E0500144E050055
:100580000000B04000000840304E050000000000B0
:10059000F0B50C78092C8BB005461F4611D0072CFE
:1005A0002CD0012C40F0A7801078012861D1186868
:1005B0004DF03AFF109BC3E90001002420460BB028
:1005C000F0BD92F800C0BCF1070F65D0BCF1090F77
:1005D00040F0E680146914F1800F00F0B1809A4970
:1005E0009A4B6FF07F0203924569994A0294CDE9D4
:1005F000003198496723A8470124DFE70C69002CE4
:1006000040F090801669002E40F0F680DFED927A7F
:1006100092ED037ADFED916AB4EEE77AF1EE10FA2B
:10062000CCBF77EE677A77EEC77AF4EEE67AF1EE32
:1006300010FA00F3EE80C8684DF0F6FE0446386804
:100640000D464DF0F1FE02460B46204629464DF080
:1006500043FF109C7AA3D3E9002308344EF066F8D8
:10066000224609AB45F000FC109A099BD360002498
:10067000A4E76F6945F02CFB0646204645F028FBB1
:10068000774B0390CDE90136764B0093704A76495B
:1006900086232846B84791E71469744EB44240F067
:1006A0009580DFED737A92ED037ADFED726AB4EE36
:1006B000E77AF1EE10FACCBF77EE677A77EEC77A79
:1006C000F4EEE67AF1EE10FA43DD6B4B002217EE02
:1006D000100ACDE904234DF0A7FECDE90201674AD7
:1006E0000192674B6C695A4A009366496323284616
:1006F000A047012462E720466E6945F0E9FA044606
:10070000012045F0E5FA56495F4B514ACDE90240D8
:10071000CDE90031284654498523B04701242046BD
:100720000BB0F0BD59495A4B002203924569484A23
:100730000294CDE9003147495B23A84701243DE7F6
:10074000DFED547A92ED037AB4EE677AF1EE10FAA7
:1007500049D1C8684DF068FE09AC02460B463868BE
:10076000CDE906234DF060FE0294109C08340194FC
:100770000524DDE90623009400F032FE109B099960
:10078000D9601F22204645F0A9FB4DF03BFE01F148
:10079000004319464EF050F9109B002498610DE774
:1007A00060466E6945F094FA034620461C4645F0C3
:1007B0008FFA39492B4B264ACDE90240CDE9003169
:1007C000284629496623B0470124F7E633491F4BE1
:1007D00045691F4ACDE90031CDE902461D49622332
:1007E000A8470124EAE62E4B4469194A00932D4993
:1007F0006823A0470124E1E62449144B4569144AC3
:10080000CDE90031CDE9026412495C23A8470124F7
:10081000D4E600224FF07C5317EE100ACDE90423F2
:100820004DF002FECDE902011F4A0192144B6C69A2
:10083000074A009313495D232846A0470124BDE6DB
:10084000140014001400243FA0690500F84D0500B1
:10085000AC680500FC120500000000386F1203337D
:10086000B02D0500841305004C1305000080FFFF28
:10087000000080376F1283320000F03E946905005B
:100880007469050048690500C0130500E41D0500F2
:10089000144E05000000803B6C2805008C690500A3
:1008A000A86905003C11050068690500000000000A
:1008B0002DE9F04FC468D1F8149023682DED068B14
:1008C00006468DB09B69002220460D4698470028B9
:1008D0006AD0236807469B6901222946204698472B
:1008E0008046002800F08780236802229B69294601
:1008F000204698478246002800F08E802368032215
:100900009B69294620469847236806909B690422E4
:100910002946204698470590002839D0D8F8083055
:10092000D9F80020D3F804B09BFBF2F302FB13B21A
:100930000793002A49D197F8009009F0F709B9F117
:10094000010F10D09F4B74699F4A00939F4940F25A
:1009500091133046A0474FF0010948460DB0BDEC59
:10096000068BBDE8F08FD7F808C0DCF80030022B0A
:1009700063D00220CDE902309549964A746940F26D
:100980009313CDE9002130468F4A9349A047E4E70D
:10099000924B74698C4A00938C4940F2851330461F
:1009A000A0474FF00109D8E78D4B7469864A009340
:1009B000304686494FF4BD73A0474FF001094846C1
:1009C0000DB0BDEC068BBDE8F08F8649864B00204C
:1009D000039074690093CDE9011230467A4A7E494A
:1009E0004FF4C673A0474FF0010948460DB0BDEC67
:1009F000068BBDE8F08F7D4B7469734A00933046D7
:100A0000724940F27D13A0474FF0010948460DB0EE
:100A1000BDEC068BBDE8F08F754B74696A4A009394
:100A200030466A494FF4C073A0474FF00109484669
:100A30000DB0BDEC068BBDE8F08F6B681B68012B19
:100A400027D12368DAF80810DB6989680B919E4684
:100A5000DCF808300A93DCF8043009932946204674
:100A6000734698470890002845D0089B9B681A68F1
:100A7000022A1CD00220CDE9022055495D4B746941
:100A8000514ACDE900313046534940F29B13A0470B
:100A900063E7CDE9023958490191584A74694E49D2
:100AA000009240F29713484A3046A04755E75A68EB
:100AB000099882420DD0CDE902205149514B746909
:100AC000414ACDE90031304643494FF4CE73A04747
:100AD00043E79B6807998B4217D0CDE902314A4A18
:100AE0004A4B74693C49CDE900323046364A40F2FF
:100AF0009D13A04731E7464B7469334A009333494D
:100B00004FF4CD733046A04727E7D8F80820136884
:100B1000022B0ED00220CDE902302D493D4A7469E6
:100B20004FF4D073CDE900213046274A2A49A04727
:100B300013E792680A9882420DD0CDE90220364927
:100B4000364B7469204ACDE900313046224940F2E3
:100B5000A113A04701E7DAF80820116802290DD097
:100B6000CDE902131A4A2E4B74691B49CDE90032B4
:100B70003046154A4FF4D273A047EEE653685B4502
:100B80000DD0CDE9023B274A274B74691249CDE9C4
:100B9000003230460C4A40F2A513A047DDE69368C8
:100BA0000B998B4246D0CDE90231204A204B746923
:100BB0000949CDE900323046034A4FF4D373A047C8
:100BC000CBE600BF3C2805008C7505003C110500F4
:100BD000ECA20500483F0500FC1205005876050010
:100BE00054110500E41D0500747605002476050007
:100BF000407605006C19050084390500BC26050007
:100C000088760500A820050094760500A0760500EA
:100C100054170500B8760500D8760500E47605007F
:100C200004770500207705002C770500487705003C
:100C300054770500069B93B19B6807995B688B42CC
:100C40000DD0CDE902319D4A9D4B74699D49CDE996
:100C5000003230469C4A4FF4D573A0477DE6059B91
:100C60009B681A68022A0ED00220CDE9022097491B
:100C7000974B7469944ACDE90031304691494FF45D
:100C8000D773A04769E65A68099882420DD0CDE92A
:100C900002209049904B74698B4ACDE9003130466F
:100CA000884940F2AF13A04757E69A680B9B03FBB5
:100CB0000BF39A420DD0CDE902238849884B746921
:100CC000814ACDE9003130467E494FF4D873A047C0
:100CD00043E6059B93F82D3093B12B681B68052BD9
:100CE0001DD00520CDE902307E497F4A746940F26B
:100CF000B513CDE900213046734A7249A0472CE66E
:100D00000120CDE902307949794A746940F2B31380
:100D1000CDE9002130466C4A6A49A0471DE63A7881
:100D20002B690A93092A13D098F800C0BCF1010F6F
:100D300020D00121CDE902C16E4A6F4B746961492F
:100D4000CDE900323046604A4FF4F673A04704E61E
:100D500098F80030092B20D0CDE902326749664B64
:100D60007469594ACDE900313046564940F2BB1307
:100D7000A047F2E59AF8001001291ED0CDE9021C27
:100D80005C4A01925E4B74694F4A00934D4940F2B0
:100D9000ED133046E146A047DFE59AF80030072B17
:100DA00020D0092B1ED0574B7469474A00935649EF
:100DB0004FF4DE733046A047CFE5059B93F80090D3
:100DC000B9F1010F1ED0CDE902914A4A01924F4B71
:100DD00074693D4A009389464FF4F77339493046A8
:100DE000A047BAE5059B1B78072B1FD0092B1DD008
:100DF000474B7469344A009343494FF4DF733046DC
:100E0000A047AAE5069B33B31B78012B23D0012012
:100E1000CDE9023037493F4A74694FF4F873CDE9A0
:100E200000213046284A2749A04796E5069B002B1B
:100E300074D01B78022B71D00220CDE902303649E4
:100E4000344A746940F2C113CDE9002130461E4A8C
:100E50001C49A04781E5089B1878012840F0918043
:100E6000099B0A9A0BFB03F11032336C8900304660
:100E70009847814600287FF470AD236839465B6A45
:100E800020469847236841465B6A20469847236876
:100E900051465B6A20469847236805995B6A20465D
:100EA0009847236808995B6A204698472368069903
:100EB0005B6A204698474FF000094EE5947605009E
:100EC000AC890500FC1205008C750500ECA205003C
:100ED000707705008876050090770500B0770500EB
:100EE000CC770500408E0500D45805001489050014
:100EF000EC770500B02D05000C7805006C28050086
:100F000068790500247805003C1105007C7905000E
:100F100070780500CC89050078280500089B1878B2
:100F2000092840F08C80059BD8684DF07DFA41EC93
:100F3000180B41EC190BDAF80C004DF075FA53EC74
:100F4000182B4DF0C9FA069B41EC180B41EC1A0B1B
:100F5000D8684DF069FA53EC182B4DF005F949A308
:100F6000D3E9002321F000414DF028FDE8B93E4BC4
:100F700074693E4A00933E494FF4E8733046A047F7
:100F8000EBE4756944F0A4FE0446012044F0A0FEA1
:100F9000384B0390CDE90134374B0093334A37493E
:100FA0004FF4F9733046A847D7E4F8684DF03CFA9F
:100FB00041EC180BD8F80C004DF036FA02460B46FF
:100FC00051EC180B4DF088FA089D0B9553EC192B3A
:100FD0004DF0ACFBD5F80C900A9D2A4605F10803AC
:100FE00044F042FF48464DF01FFA02460B4651ECD2
:100FF0001A0B4DF09BFB05F10C092A464B460432B7
:1010000044F032FF3B69AB612A460B9D09992B697D
:10101000D361059B0BFB01F11B6913628900336CE3
:101020001546304610329847814600287FF495AC2B
:101030000999079B2A4603FB01F1143215E77569EC
:1010400044F046FE0446092044F042FE0C4B039057
:10105000CDE90134084B0093044A08494FF4E27388
:101060003046A84779E400BFC47805008C750500B8
:101070003C110500B02D0500841305004C1305003C
:101080006C280500F168E388B5F8E43E0000000034
:101090002DE9F04FC668D1F8108033682DED028B32
:1010A000044689B09B69002230468A46984700284A
:1010B0005AD0DAF800300269C8F800200546002B43
:1010C0003FD01B68012B3CD1DAF8040000286CD01B
:1010D000D0F800B0BBF1010F54D1E7683B680022A3
:1010E0009B695146384698478146002875D03B6831
:1010F0005146DB690022384698478246002800F0B6
:101100008D8099F800009AF80030834250D1092868
:1011100000F0898007286AD03B68494638465B6AF8
:1011200098473B68514638465B6A98473368304673
:101130005B6A29469847002009B0BDEC028BBDE8E8
:10114000F08F01266569904A0192CDE902368F4BF6
:10115000009320468E4A8F493523A847304609B070
:10116000BDEC028BBDE8F08F8B4B6569884A00931C
:1011700020468A498F23A847012009B0BDEC028B85
:10118000BDE8F08F6669804B01930125844B009385
:101190002046CDE902B57E4A7E493623B04728462F
:1011A00009B0BDEC028BBDE8F08F66698346EAE7C3
:1011B000666944F08DFD05469AF8000044F088FD0C
:1011C000784B0390CDE90135774B00932046704A68
:1011D00076493E23B0475846C1E76F4B6569009397
:1011E000392320466A4A6D49A8475846B7E7D9F8D7
:1011F0001030002B39D1DAF810B0BBF1000F42D01B
:10120000CDE902B36A496B4A65695B23CDE90021E8
:1012100020465F4A5F49A8470120A0E7664B656901
:1012200000933C23DDE7D9F80C004DF0FDF808F100
:101230000C0B624B00224DF04FF95A464AF084FAEB
:101240005F4B00224DF048F94AF0B6FA4DF0F4FB3E
:10125000D8F80C10C8F808001F22042044F03EFE05
:10126000C8F8040099F8000054E7514A5548002195
:101270000391656947490090CDE901232046444A1E
:101280005A23A847C8E7D9F80C0006A944F062FE23
:10129000069B0C33012BC8F80C301DD8E0B1C8F800
:1012A00008B0DAF80C0007A944F054FE002855D025
:1012B000079B13F10F0F3FF42FAF434A43486FF0E2
:1012C0000E010391656933490090CDE90123204661
:1012D0002F4A7E23A8479FE7D9F80C004DF0A4F8C9
:1012E0003B4B00224DF0F8F83A4B00224DF0F4F859
:1012F00002460B4643EC182B0023C8F80C3020A301
:10130000D3E900234DF064FB08B3049705942F46FE
:1013100055EC184B4FF0010B22462B462046294630
:101320004CF024FF16A3D3E9002304460D464DF0EC
:101330004FFBE0B10BF1010BBBF1200FECD145EC01
:10134000184B3D46DDE904741F23C8F80C3051ECFE
:10135000180B4DF071FBC8F80800A2E71E4B656939
:101360000B4A00930D497C232046A84754E745ECDF
:10137000184BC8F80CB03D46DDE90474E7E700BF40
:1013800000000000C0FFCF4084390500F8150500BB
:10139000AC790500FC120500541105003C11050054
:1013A0001813050084130500C01305004C13050035
:1013B000E41D0500F84D0500541705000000A0418C
:1013C0000000E041144E0500704E0500884E0500F7
:1013D0000000B04000000840304E05000000000052
:1013E000F0B583B00646089C4FF00040E0400F4641
:1013F000CDE900234DF006F8DDE9002304460D4653
:10140000304639464DF068F802460B4620462946DC
:101410004DF062F816A3D3E9002304460D464DF0C3
:10142000EBFA0A9F98B90646134B0022204629463C
:101430004DF0E2FAB8B100220023204629464DF0D3
:10144000B3FA38B1099B1E603E6003B0F0BD08A539
:10145000D5E900453B46099A2046294644F0D8FC88
:101460003B68002BF1DA4DF0CBFD00BFAFF30080FD
:101470000000C0FFFFFFDF410000F03F0000000060
:101480002DE9F04184B006460A9C4FF00040E04050
:101490000F46CDE900234CF0B5FFDDE900230446FB
:1014A0000D46304639464DF017F802460B462046A9
:1014B00029464DF011F830A3D3E9002304460D4628
:1014C0004DF09AFADDE90B78002836D106462C4B10
:1014D0000022204629464DF08FFA002847D00022EE
:1014E0000023204629464DF05FFA48B3254D3E6063
:1014F00000220023C8F800600024204629464DF051
:1015000015F91F4B002204460D464DF057FA70B3F3
:1015100000220023204629464DF06EFA38B303AB73
:101520000D9A2046294644F073FC039B002B1EDCD9
:101530000E9A136004B0BDE8F0810FA5D5E900450F
:101540004346204629463A4644F062FCD8F800302B
:10155000002B0CDB4FF00040D8404CF053FF04460A
:1015600038680D464CF04EFF02460B46C5E74DF07D
:1015700047FD00BFAFF300800000C0FFFFFFDF4169
:101580000000F03F0000E0C12DE9F0412DED028B9D
:1015900082B091ED038ADDF82880D2ED038A0546FA
:1015A00073B318EE100A1C464CF03EFF064618EEC8
:1015B000900A0F464CF038FF02460B46304639463B
:1015C0004CF08AFF0646E0680F464CF02DFF0246BD
:1015D0000B46304639464CF0C7FD0646D8F80C009D
:1015E00021F000474CF020FF02460B4630463946BA
:1015F0004DF09CF826A3D3E900234DF0E9F908B398
:1016000028EE288AB5EEC08AF1EE10FA29DB18EE32
:10161000100A4CF009FF0446D8F80C000D464CF0B7
:1016200003FF02460B46204629464DF07FF80B4645
:101630000B9902460020C1E9002302B0BDEC028BE9
:10164000BDE8F0810E4B6C690E4A009328460E49A6
:101650004FF4A073A047012002B0BDEC028BBDE89F
:10166000F0810A4B6C69074A00932846064940F20C
:101670004D13A047012002B0BDEC028BBDE8F08104
:10168000CCA2050038A205003C110500F0A205001F
:101690007B14AE47E17A943F82B010B59FED0C7B8E
:1016A00082B00146069CCC6081ED067B10300021A3
:1016B00004AC019084E80C0007F03CF9019802B0FA
:1016C000BDE8104002B007F089B800BFAFF300805A
:1016D0000000000000000000C1F30A5CF8B5ACF2A5
:1016E000FF35132D02460B460C4606462FDC002D17
:1016F0001DDB354F2F4101EA070C5CEA000C2BD0B3
:101700002FA3D3E900234CF031FD002200234DF03C
:1017100073F948B1002C04DA4FF4801343FA05F54D
:101720002C4424EA0704002621463046F8BD24A3B1
:10173000D3E900234CF01AFD002200234DF05CF9A0
:101740000028F1D0002C25DB00263446ECE7332DB1
:1017500005DDB5F5806F1AD010461946F8BDACF21C
:10176000134C4FF0FF3727FA0CF70742F4D014A3BD
:10177000D3E900234CF0FAFC002200234DF03CF9A1
:101780000028D1D0002C0EDB26EA0706CCE74CF06F
:10179000EDFCF8BD24F000430C4A1E43002E18BF98
:1017A00014460026C0E7142D08D00123C5F13405E6
:1017B00003FA05F5AE1928BFE418E5E70134E3E7BD
:1017C0009C7500883CE4377EFFFF0F000000F0BFEF
:1017D000F8B504460D4600F037F806460F46204699
:1017E00029464CF07FF978B112A3D3E900232046B3
:1017F00029464DF001F950B910A3D3E90023204642
:1018000029464DF0DBF858B930463946F8BD4CF062
:1018100005FA074F22230026036039463046F8BDFB
:101820004CF0FCF92223002600270360ECE700BF00
:101830000000F07FEF39FAFE422E864051302DD560
:10184000104987C0000000002DE9F04FDA4F2DED60
:10185000028B21F00042BA4283B004460D464FEAA3
:10186000D1760DD9D54FBA4271D9C1F313030343D1
:10187000024640F05281002E64D00020002161E039
:10188000CF4B9A4200F21A81CE4B9A4240F23281FB
:1018900022462B46204629464CF01EFEB0A3D3E933
:1018A000002306460F464CF017FEAFA3D3E90023F2
:1018B0004CF05AFC32463B464CF00EFEACA3D3E94A
:1018C00000234CF053FC32463B464CF005FEAAA3E5
:1018D000D3E900234CF048FC32463B464CF0FCFD7B
:1018E000A7A3D3E900234CF041FC32463B464CF021
:1018F000F3FD02460B46204629464CF035FC0A46CD
:101900000146914688460A464B46204629464CF0F9
:10191000E3FD002206460F464FF08043404649460D
:101920004CF022FC02460B46304639464CF0FEFE97
:1019300022462B464CF018FC02460B460020A249DA
:101940004CF012FC03B0BDEC028BBDE8F08F8EA30F
:10195000D3E900234DF050F80746002840F0E58019
:101960008BA3D3E90023204629464DF027F8002811
:1019700040F03481954B204603EBC606294686A3EA
:10198000D3E900234CF0A8FDD6E900234CF0EEFB90
:101990004DF052F801904CF035FD81A3D3E90023BE
:1019A00006460F464CF098FD02460B462046294657
:1019B0004CF0DAFB7CA3D3E900238046894630460D
:1019C00039464CF089FD41EC180B53EC182B40467E
:1019D00049464CF0C9FB02460B4682468B464CF00A
:1019E0007BFD5FA3D3E9002304460D464CF074FD54
:1019F0005DA3D3E900234CF0B7FB22462B464CF005
:101A00006BFD5BA3D3E900234CF0B0FB22462B46D1
:101A10004CF062FD58A3D3E900234CF0A5FB22460D
:101A20002B464CF059FD56A3D3E900234CF09EFB06
:101A300022462B464CF050FD02460B465046594676
:101A40004CF092FB019B0F46064654465D4601460C
:101A50003A46002B3FF455AF32463B465046594676
:101A60004CF03AFD32463B4604460D4600204FF00E
:101A700080414CF079FB02460B46204629464CF04B
:101A800055FE02460B4651EC180B4CF06DFB4246DE
:101A90004B464CF069FB02460B4600204A494CF08D
:101AA00063FB019A6FF47F739A4246DB01EB0255A8
:101AB000294603B0BDEC028BBDE8F08F444B9A423F
:101AC0003FF658AF434B03EBC603D3E900234CF07A
:101AD0004BFB414BF400234493ED007BC6F1010A1C
:101AE000AAEB0603804689460193B0EE478AF0EEE2
:101AF000678A6AE72EA3D3E900234CF037FB324B09
:101B000000224CF079FF00283FF4C2AE2E4B002299
:101B1000204629464CF02AFB14E70B464CF026FBE6
:101B200003B0BDEC028BBDE8F08F002003B0BDEC2C
:101B3000028BBDE8F04F4BF09FBF0246019800F5C5
:101B40007A7A01EB0A531046194600224FF0B87317
:101B50004CF0C2FC03B0BDEC028BBDE8F08F00BFBF
:101B6000D0A4BE726937663EF16BD2C541BDBB3EA3
:101B70002CDE25AF6A56113F93BDBE166CC1663F81
:101B80003E5555555555C53FEF39FAFE422E864014
:101B900051302DD5104987C0FE822B654715F73F80
:101BA0000000E0FE422EE63F763C7935EF39EA3D13
:101BB0009C7500883CE4377E412E8640FFFFEF7F16
:101BC000422ED63FFFFFEF3D0000F03F90F10400B2
:101BD000B1A2F03FA0F10400B0F10400384603B018
:101BE000BDEC028BBDE8F04F4BF040BF10B5054C8B
:101BF000237833B9044B13B10448AFF300800123B9
:101C0000237010BD982D00200000000054B3050083
:101C100008B5034B1BB103490348AFF3008008BD6F
:101C2000000000009C2D002054B30500A3F5803A6D
:101C3000704700BF174B002B08BF134B9D46FFF7A3
:101C4000F5FF00218B460F461348144A121A4DF037
:101C50003BFA0E4B002B00D098470D4B002B00D0C9
:101C600098470020002104000D000D48002802D0F4
:101C70000C4805F087FA4BF0EBFF2000290000F03C
:101C80002BF84BF0D1FF00BF00000800000000005F
:101C90000000000000000220001A0020144C002068
:101CA000857100000000000010B5034B036004467E
:101CB0000DF052F8204610BDE4F1040010B5054BBC
:101CC000036004460DF048F820464DF078F92046B0
:101CD00010BD00BFE4F1040030B52C482C4D8FB08E
:101CE00003F00EFF2B4805F0E3FF18204DF069F9D3
:101CF00004460FF00DFE20462C60274C274941F288
:101D000070720FF00BFE0FCC0DF1040CACE80F005D
:101D10000FCCACE80F000FCCACE80F002168CCF87A
:101D20000010042228680D230DEB02010FF06AFE5B
:101D300090ED007AD0ED017AB4EEE77AF1EE10FA88
:101D400006DDD0ED026AB4EEE67AF1EE10FA17DCA9
:101D5000B4EEE77AF1EE10FA06D590ED027AF4EEE1
:101D6000C77AF1EE10FA06DC0D48032105F0A0FF5A
:101D700000200FB030BD0A48022105F099FFF7E7B7
:101D80000748012105F094FFF2E700BF001B002087
:101D9000B42D0020C0F1040024F20400140000203F
:101DA000D0F1040010B5054C204603F0ADFC2046F0
:101DB000034A0449BDE810404DF0FCB8001B002068
:101DC00010000020C91D00005B4B03F13C022DE90F
:101DD000F0410446C0E9003200F59050002500F0C3
:101DE000C7FC564E564FDFF86C8104F50C6000F0CE
:101DF00051FA04F69400A4F89A58C4F8946805F0CF
:101E000001FE04F66C00A4F87258C4F86C6805F082
:101E1000F9FD04F63C000AF093F84A4BC4F82C385C
:101E200004F62C0006F05EFF04F60C0008F0CCFD72
:101E300004F2EC7008F0C8FD04F27C7000F078FB4E
:101E400004F21C7002F002F904F5DE6001F06EF994
:101E500004F5D56000F0A2FCC4F88C7604F28C6026
:101E60000CF07AFFC4F8747604F274600CF074FF1E
:101E700004F20C600EF058FC334BC4F8C43204F585
:101E8000317704F5C1600BF0DBFE3846A4F8CA5286
:101E9000C4F8C46205F0B6FD2C4BC4F8843204F5D6
:101EA00021700AF005FA2A4BC4F8B8302833C4F878
:101EB000C03004F51E700BF0C3FE04F51D700BF06E
:101EC000BFFE04F1B80704F5167545F8188C2846CE
:101ED0000AF0C2FAA5F11000343D0BF0B1FEBD428C
:101EE000F3D100272846C4F8B860A4F8BE7005F006
:101EF00089FD04F1900009F083FC04F1580008F01A
:101F0000FFF904F13C00E663A4F8427005F07AFDA5
:101F100004F124006662678505F074FD04F10C008D
:101F2000E660678205F06EFD201D6660678105F042
:101F300069FD2046BDE8F081A8FF040060010500AE
:101F4000E4F104001C06050008000500D40C05009F
:101F5000400B05001C0B0500A0F1040034E700BF96
:101F600010B50446FFF730FF20464DF028F8204614
:101F700010BD00BF10B5041F2046FFF725FF204607
:101F80004DF01DF8204610BD0048704716FCFFFFBD
:101F9000704700BF704700BF0048704716FCFFFF46
:101FA00082B010B58C4684B049688646DCF80000E3
:101FB0000DF1080CACE8030006A981E80C00039BB6
:101FC000DA070EEB630C12D55A10029B5EF8022062
:101FD000D45808AB93E803008DE8030006AB0CCBA4
:101FE0006046A04704B0BDE8104002B07047029CB4
:101FF000EFE700BF2DE9F04F83B0DDE90CABBDF892
:102000003870002B41D080460E4691461D46BAF1ED
:10201000000F3DD00F2E01D1C02F36D128204CF01B
:10202000D0FF044610300BF00FFB18202680A4F8D8
:1020300002904CF0C6FFCDE900AB47F00207A78045
:102040006B4607460246A06003CB47F80C5B0023B3
:10205000D8F80060D360E3607B6091605060756881
:102060000D495161C4E908330C4B9D4208D120460B
:1020700006F082FD204603B0BDE8F04F4CF09FBF54
:1020800021464046A8470028F1D103B0BDE8F08FB3
:102090001BF0010FBED1F8E7A11F0000991F00003F
:1020A00070B5044682B038204CF08BFF04F108066E
:1020B00013233246054624490093244B0DF000F9C2
:1020C0000021C4F8D85828460DF00EFAD4F8D808E4
:1020D0000DF0CEF981B2304601F034FF4FF40041EB
:1020E000304601F039FFD4F8D80888B194F8643844
:1020F000D4F86C188BB90DF07DFBD4F8D80894F89F
:10210000653828B1D4F868185BB100220DF02EFBB9
:10211000D4F8D4385BB102B070BD01220DF026FBBB
:10212000EBE70DF067FBD4F8D438002BF3D1002295
:1021300040F2FF3304F50761304601F0C3FEC4F8F6
:10214000D40802B070BD00BF0010024000442C470C
:1021500010B5044649B3D0F8D83823B3C388194A18
:1021600043F001030221C380C2F88410BFF34F8FF4
:10217000BFF36F8FD0F8D8080DF0F2FAD4F86C18CE
:10218000D4F8D8080DF036FBD4F86818D4F8D8087D
:102190000DF030FBD4F8D80810B103689B6998475C
:1021A0000023C4F8D838002010BDC388DA07FAD558
:1021B000D0F8D82823F00103C380002AF3D1FFF719
:1021C0006FFFF0E700E100E082B038B504A981E8D4
:1021D0000C00BDF81250BDF8101004462A461D48E8
:1021E00005F066FD052D20D0032D1ED025F002053B
:1021F000042D03D0BDE8384002B07047D4F8503801
:102200001B6A002BF6DCD4F8E408036800211B6885
:102210009847D4F8E40800210EF06EF8D4F8480886
:10222000BDE8384002B00BF047BFD4F8E4080368BB
:1022300001211B689847D4F8E40801210EF05CF8EE
:10224000D4F84818D4F8DC08BDE8384002B00CF0E7
:102250008FBB00BF58F20400044B186810B1D0F8CF
:10226000D83803B17047FFF71BBF00BFB82D00205F
:10227000D0F8D83880F865185BB129B1D0F8681863
:10228000002218460DF072BAD0F8681818460DF002
:10229000B1BA704770B50446D0F8D8081C4B23601B
:1022A00048B1D4F86C180DF0A5FAD4F86818D4F831
:1022B000D8080DF09FFA174BC4F8F03803F18001ED
:1022C00003F1A402C4F80419C4F80C29124E002525
:1022D00004F618100BF0B4FC04F60410C4F80469FA
:1022E000A4F80A5905F08EFB04F6EC0002F054FD48
:1022F00004F5076002F024FA04F1080001F0CEFBB7
:1023000020462660E58005F07DFB204670BD00BFBD
:1023100074F20400A0FE04006001050010B504463C
:10232000FFF7B8FF20464CF04AFE204610BD00BF24
:102330002DE9F0474FF000088AB01D46714B03604D
:102340000646C0F80480044617468A46DDF84890E1
:1023500005F0EAFA6C4B46F8083B6C49032340F25F
:10236000FF323046FDF74CFF40F20113C4F86C78A1
:1023700004F507674AF64442A4F8643840F6C231CF
:10238000C4F868A8384602F079FA139BC4F8E43818
:102390003946C4F8D488C4F8D888C4F8DC58C4F8DE
:1023A000E09804F6EC0002F0F5FC2B22314604F52F
:1023B0000F6002F093FF564B1A68002A00F0A080CD
:1023C0003846012102F0DAFC0022494628460CF08A
:1023D00077FA5A21C4F8480828460CF0B7F90721C3
:1023E0000022D4F848084B4E0BF0C6FE05F088FAE0
:1023F0000246502005924CF0E4FDD4F84818059AA6
:10240000054618310BF002F8C4F8545828460AF073
:102410003BFD0146402005914CF0D3FD0A2301937A
:1024200002233D4A05990093012305460AF094FCD6
:10243000D4F85408C4F84C580368DB689847014640
:10244000502005914CF0BDFD0023019340F6B933B7
:10245000029300274FF08343009305992F4B304A96
:10246000039705460AF094FA3368C4F85C588BB1B8
:102470002C490691079706A903C9D4F85428158951
:102480008DE803001846C02302933A4629462346A6
:10249000FFF7B0FD50204CF094FDD4F84C180546E1
:1024A000252224310AF0B2FFC4F8505828460AF019
:1024B000EBFC0146302005914CF083FD00271523ED
:1024C000CDE9003705994B23962205460AF08CF892
:1024D0003668C4F858587EB1124BCDE90837C0238E
:1024E00002930AAB13E903003A468DE80300234642
:1024F00025213046FFF77EFD20460AB0BDE8F08773
:102500001C605DE76001050074F2040000442C4784
:10251000B82D00208C3300200AD7A33D0000824252
:102520000000AA42C92100000048704716FCFFFFC6
:1025300010B5074B03F1080248330446026040F827
:102540003C3F07F0F3FF204601F08AFD204610BD16
:1025500090F20400094B10B503F108024833044619
:10256000026040F83C3F07F0E1FF204601F078FDB3
:1025700020464CF024FD204610BD00BF90F2040020
:10258000094A10B502F108014832A0F13C0440F8B4
:102590003C1C026007F0CAFF204601F061FD2046A6
:1025A0004CF00DFD204610BD90F20400084B10B514
:1025B000044603F10801483340F83C1C44F83C3918
:1025C00007F0B4FF204601F04BFD204610BD00BFD0
:1025D00090F20400F0B5044683B0182015460F466B
:1025E0004CF0EFFC0D491B2206460EF0EFFD0123D7
:1025F00000933A462B463146204601F0C7FE2A4654
:10260000214604F13C0007F0D5FF054B204603F1BD
:10261000080248332260E36303B0F0BD00B001401C
:1026200090F20400F8B50646044656F85C0B0368C1
:102630004FF400620025DF69E2620B233146B847A0
:102640002946102284F8835084F8785084F86D501D
:1026500084F8885004F179004BF0D6FC294610220A
:10266000E06304F16E004BF0CFFC2368E56A1A6862
:10267000606405F5006518466563136BE76B984762
:102680002844874212D3656CE36BAB420ED22068BC
:102690000368DB6A9847854208D205490E22304616
:1026A0004CF0DAFCB0FA80F04009F8BD0020F8BD2B
:1026B000F4F2040038B50446154618464FF480720B
:1026C0000423C4E90150216004F10C00083103F037
:1026D0000FFE04F1240006F07DF804F190000BF0E9
:1026E000BBFB0023C4E91133C4E913332363236222
:1026F000A363E3626363E363A4F85430A365C4F89F
:102700008C30204638BD00BF30B5036ADB078DB082
:10271000044608D4FFF786FF28B9236A23F0010393
:1027200023620DB030BD2D22002168464CF0CCFC58
:102730002068E16A02680B23156A6A46A847206888
:10274000016801230D6A616C6A46A847E5E700BF8E
:1027500038B500F124050446284606F03FF8204627
:10276000FFF7D2FF2846BDE8384006F0AFB800BFFB
:1027700010B5044690300BF0F3FA204610BD00BFB0
:10278000C1600020704700BF0048704716FCFFFF83
:10279000014B1880704700BF084C002010B5044A58
:1027A000026000230446C38005F02CF9204610BDCA
:1027B0006001050010B5064A026000230446C3808C
:1027C00005F020F920464CF0FAFB204610BD00BF72
:1027D0006001050082B010B58C4684B04968864619
:1027E000DCF800000DF1080CACE8030006A981E854
:1027F0000C00039BDA070EEB630C12D55A10029BF8
:102800005EF80220D45808AB93E803008DE803007B
:1028100006AB0CCB6046A04704B0BDE8104002B048
:102820007047029CEFE700BF2DE9F84300251E46E4
:10283000134B45600446036017468846BDF8209058
:1028400005F072F80F4B2360C4E90887A66204F113
:102850002C0005F0BFFF00220023C4E90E23E3880B
:10286000256143F4804343F004036561A56165631A
:10287000A4F84050A4F80490E3802046BDE8F88313
:1028800060010500ECF30400C3885B070CD510B5AC
:10289000006A84B0026800230093146AE0210DF1FD
:1028A0000F02A04704B010BD704700BF70B5C388C9
:1028B0005B0784B004460D4608D5006A0023026811
:1028C0000093166AE0210DF10F02B047206A2A68D2
:1028D00001685388002400940C6A0432E021A04768
:1028E00004B070BD70B54B6AD3F80C23B3F8124333
:1028F000526884B0064603F543700D46904784F451
:102900008074B0FA80F3C4F300245B09A34229D198
:102910000C2101220DEB01000BF06AF9EB885B073B
:1029200008D5286A002302680093146AE0210DF19B
:102930000B02A047286A039A0368002100919C6A51
:1029400004320C23E021A04748B903A930460BF01C
:102950006DF903A80BF074F9304604B070BD03A8FC
:102960000BF06EF930460BF03DF9304604B070BD07
:1029700070B50C4682B0064668460BF033F9E38822
:1029800001252B43E380012006F0A4F9214601A88C
:10299000FFF7A8FF01A968460BF05AF901A80BF050
:1029A0004FF9009B5A88691CE2B11A79202A1DD17F
:1029B000E2885B79920601D5392B1FD0312B11D0DB
:1029C000022168460BF0C0F9E38823F00103694651
:1029D000E38030460BF02AF968460BF031F93046B7
:1029E00002B070BD132D0BDC0D46CCE7132AE7D0E7
:1029F0005979104806F016F9C11CE2E70125C2E733
:102A00000D4805F045F90122022101A80BF0F0F86C
:102A1000019B20221A7138225A71E38823F00103A6
:102A2000E38001A930460BF001F901A80BF008F989
:102A3000D2E700BF9CF3040008F3040070B584B033
:102A40000D4601921E4604460BF0CCF8019903A8EE
:102A50000BF0ECF803A92846FFF728FF00B92EB9C0
:102A600003A80BF0EDF8204604B070BD03A80BF0EE
:102A7000E7F8294603A8FFF77BFF03A920460BF0E0
:102A8000E7F803A80BF0DCF8204604B070BD00BFE7
:102A900070B582B01646044601220D4668460221F2
:102AA0000BF0A6F820460BF09DF8009B10225E71FB
:102AB0001A71694601A80BF0B9F801A92846FFF779
:102AC000F5FE064601A80BF0BBF82EB168460BF0E8
:102AD000B7F8204602B070BD294601A8FFF748FFAD
:102AE00001A920460BF0B4F801A80BF0A9F868463C
:102AF0000BF0A6F8204602B070BD00BF30B5CB8801
:102B00009B0783B00C46054606D5A068A3892860BC
:102B10002846AB8003B030BD68460BF063F8012255
:102B2000214601A8FFF7B4FF01A968460BF090F811
:102B300001A80BF085F8009BB3F80730A3810222AF
:102B4000214601A8FFF7A4FF01A968460BF080F811
:102B500001A80BF075F8009BB3F807302381022B16
:102B600003D1E38843F02003E3800322214601A838
:102B7000FFF78EFF01A968460BF06AF801A80BF079
:102B80005FF8009BA189B3F80730638149F604120E
:102B9000E388914216BF23F0040343F0060343F099
:102BA0000203E38068460BF04BF8AEE770B50C46C5
:102BB00084B00421054601220DEB01000BF018F84A
:102BC000019A122313710126082384F00104537122
:102BD0009671D47101A90DEB03000BF027F8334671
:102BE000294602AA03A8FFF729FF03A80BF028F83B
:102BF00002A80BF025F801A80BF022F804B070BD74
:102C000030B5012185B00446FFF7D0FF0021012037
:102C100004F00CFF04210DEB010001220AF0E8FF93
:102C2000019A12231371072301255371082395710B
:102C3000D37101A90DEB03000AF0F8FF2B4602AA9D
:102C4000214603A8FFF7FAFE03A80AF0F9FF02A83D
:102C50000AF0F6FF0A2006F03DF8606A032100F54D
:102C600043700DF063FB4FF0804301A8C3F800559B
:102C70000AF0E6FF05B030BDC388DB0700D570471A
:102C800030B50446406AD0F80C33B0F812535B6894
:102C900083B000F54370984785F48075B0FA80F0F2
:102CA000C5F300254009A8421CD168460AF09AFFE6
:102CB000214601A8FFF716FE01A968460AF0C8FFE1
:102CC00001A80AF0BDFF009B5A8842B11A79112A67
:102CD00002D15A79092A07D0124804F0D9FF684670
:102CE0000AF0AEFF03B030BD99790129F4D1DB7948
:102CF000022B07D0032B0DD0012B07D00A4804F07C
:102D0000C7FFECE7094804F0C3FFE8E7084804F010
:102D1000BFFFE4E7074804F0BBFF2046FFF770FF62
:102D2000DDE700BF1CF304007CF3040054F304004F
:102D30003CF3040064F30400C38870B513F001058C
:102D400003D0124B00221A6070BD0446406AD0F8CE
:102D50000C33B0F812635B6800F54370984786F453
:102D60008076B0FA80F0C6F300264009B042E8D180
:102D7000064A13681D2B02DC0133136070BD204628
:102D80001560BDE87040FFF777BF00BFBC2D002085
:102D9000C38819B143F00103C380704723F00103D6
:102DA0009BB2C380704700BF08B505F0FDFC00383A
:102DB00018BF012008BD00BF10B5044607F0A2FAF5
:102DC000D4E90E32C01A61EB0201B0F5FA7F71F15D
:102DD000000305D3606B0028CCBF0020012010BD8C
:102DE000002010BD30B5194B1D688DB045B30446A9
:102DF00006A80AF029FC164B029318204CF0E1F8C3
:102E000014490022CDE900120146CDE9040241F83F
:102E10000C4BCDE90A22C2604A606A46034603CAE7
:102E2000586099602A680C4992680C4858618A4237
:102E30004FF01203ADF80C3004D102A805F09CFE4F
:102E40000DB030BD02A928469047F6E78C3300202C
:102E5000FF030500612E000089270000D527000030
:102E600082B010B502A981E80C00BDF8082040F23C
:102E7000FF339A4203D0BDE8104002B07047BDF85E
:102E80000A30052BF7D1044600212C3005F052FD05
:102E9000002005F091FC2046BDE8104002B0FFF78D
:102EA000A1BF00BF2DE9F04F8BB006469DF8500042
:102EB00004901F460D460191144607F033FAB36A99
:102EC000002B00F0F68082468B4607F02BFA6DB19E
:102ED000844277EB0103C0F0EA80774A201A67EB5F
:102EE0000101002382428B4180F0E18030460121C4
:102EF000FFF75CFE049B002B14BF02200120002181
:102F000004F094FD08A807F0D7FA8046B06A029151
:102F10000368C168DA6943690791D3F848150591D8
:102F2000D3F804130691D3F80413C3F80813634BC2
:102F30009A4240F0B480624BC360DFF89491002362
:102F4000A9F80030049B73B9159B63B11B681598F1
:102F50005B689847159BD988C1F30021C1F1030133
:102F600018460DF0E3F9706A032100F543700DF087
:102F7000DDF9B06A534A03684021DB6B1160089A9F
:102F800002219847B06A03689B6A98470D3C029BF0
:102F900047F1FF37B4EB0A0467EB0B07B8EB0A08FD
:102FA00063EB0B0B18EB08084BEB0B0BB4EB0803B4
:102FB000029367EB0B030393019B089CDFF814B1AA
:102FC00000252F46AA4643B3029B03999D4277EB07
:102FD000010224D25A1B61EB070393457AEB0303EA
:102FE0001BD3B06A03682244DB6B0221984730BFD1
:102FF000B06A03689B6C9847041B6519804647F1CB
:10300000000707F08FF9B9F8002092B2444632B1B8
:10301000019BA9F800A0002BD6D15A46E1E7706ABF
:10302000002100F543700DF081F9049921B9159B39
:1030300013B118460DF07AF9B06A03681B6B984714
:10304000B06A0368DA694369D3F80413C3F8081354
:103050001A498A4226D1079AC260059AC3F84825C0
:10306000002200231946104607F036FAB36A049A84
:103070005B69002A069AC3F8042314BF04200320C6
:10308000002104F0D3FC00213046FFF78FFD07F04C
:1030900039F9C6E90E0100200BB0BDE8F08F0849F0
:1030A00090474AE707999047B36A5B69D5E70648B6
:1030B000F2E70648F0E700BF9F8601008127000085
:1030C0009127000000E100E009FCFFFF16FCFFFF74
:1030D000084C0020BFBDF0FF70B5044684B000204E
:1030E00005F06AFB2046FFF77DFE0022002302A8C0
:1030F000CDE9022307F006FA0026012301460093DA
:103100000196DDE902232046FFF7CCFE3146054655
:1031100004F12C0005F00EFC284604B070BD00BF81
:103120006FF47D70704700BF00207047094B10B5E9
:1031300003F10802483304460260836018300AF045
:103140000FFE054A226000232046E38004F05AFC6B
:10315000204610BDBCF4040060010500002070474B
:103160000B4B10B503F1080248330446026083603C
:1031700018300AF0F5FD074A22600023E38020465C
:1031800004F040FC20464BF01AFF204610BD00BF63
:10319000BCF40400600105002DE9F0411D46104B10
:1031A00003600023436004460F461646BDF81880AE
:1031B00004F0BAFB0B4B656103F10802483322604F
:1031C000A360C4E9037604F118000AF045FE40222A
:1031D0001823A4F80480A262E3802046BDE8F081B1
:1031E00060010500BCF404002DE9F04F2DED028BC9
:1031F000032B87B008EE100A0C46174619464FF00D
:103200000102B8BF032105A803930AF0F1FC594D50
:10321000DFF86CB14FF0140960690121FFF7B8FDC8
:10322000E0683A6801685388002600960E6A043206
:10323000E421B047824600286DD13B681B790C2BF6
:1032400074D1E38813F0400F14BF6420142005F0FC
:1032500073F94FF000082369D3F80C23B3F8126315
:1032600003F54370536886F48076AB42C6F30026BC
:103270004CD10020864225D1002211464FF0FF3369
:1032800005A80AF0F5FCE068059A01685388CDF8B6
:1032900000808E6A0432E421B0478246002849D17A
:1032A000059A3968137909798B424CD0E0888006F9
:1032B0001FD5202B0ED15379392B0BD1012005F0CE
:1032C0003BF9C8E70AF1010A012005F035F9BAF126
:1032D000140FC0D1B9F101099ED1274804F0D8FCE0
:1032E00060694946FFF754FD18EE100A0AF07AFCAF
:1032F00036E0002BE2D0202BECD153799942DDD07F
:10330000002BDBD0B9F1010986D1E6E79847B0FA86
:1033100080F04009AEE7584604F0BAFC012005F001
:103320000BF9B9F101097FF477AFD6E7012005F079
:1033300003F98EE70146114804F0AAFCB9F101092E
:103340007FF46AAFC9E760695146FFF721FD039931
:1033500005A80AF0F9FC18EE100A05A90AF066FCA7
:1033600005A80AF06DFC18EE100A07B0BDEC028B40
:10337000BDE8F08F2131000044F4040024F404007F
:1033800008F404002DE9F0410C4684B00546486974
:1033900098461746FFF778FAE388DB0611D403AEA8
:1033A000394630460AF042FC43463246214628461A
:1033B000FFF71AFF30460AF043FC284604B0BDE888
:1033C000F0810122114601A80AF012FC3B681B792A
:1033D000032B019B0CBF062203221A7101A902A82C
:1033E0000AF024FC03210A4805F01CFC03AE034646
:1033F00002AA21463046FFF7F7FE30460AF020FCCD
:1034000002A80AF01DFC01A80AF01AFCC8E700BFD8
:1034100074F40400F0B585B0044617460E46012248
:10342000082101A89D000AF0E3FB20460AF0DAFB20
:1034300047F02060019F03F0EBFC7860284603F022
:10344000E7FC01A9B86002A80AF0F0FB05F1080347
:1034500002AA314603A8FFF795FF03A920460AF008
:10346000F7FB03A80AF0ECFB02A80AF0E9FB2368CB
:103470005B88082B12D9002220464FF0FF33082129
:103480000AF016FC23685988204608390AF05CFCCB
:1034900001A80AF0D5FB204605B0F0BD03A80AF04C
:1034A000A1FB03A920460AF0D3FB03A80AF0C8FB3E
:1034B00001A80AF0C5FB204605B0F0BD30B583B0C9
:1034C0000C46014601A81D46FFF7A4FF01994B8851
:1034D0005BB12046AA0004314BF0CEFD002401A8C8
:1034E0000AF0AEFB204603B030BD014CF7E700BF49
:1034F0000CFCFFFFA0F10800FFF7E0BF2DE9F04F43
:10350000804685B068464FEA83090D4692460AF028
:1035100069FBD8F828104945A8BF4946083101225F
:1035200001A80AF065FB09EB050B4FF0FF33002201
:10353000FF2101A80AF09CFB5D453DD2002601E079
:10354000AB4539D9D8F82820019FA9EB060494424D
:1035500045F03060A8BF144603F05AFC786020465E
:1035600003F056FC26F0030122465144B86007F1EF
:103570000C004BF081FD04F1080101A80AF0E4FB06
:1035800001A902A80AF052FB092302AA414603A896
:10359000FFF7F8FE03A968460AF05AFB03A80AF0F1
:1035A0004FFB02A80AF04CFB009B5B882544264495
:1035B000002BC5D1064C00E0002401A80AF040FB16
:1035C00068460AF03DFB204605B0BDE8F08F00BF1D
:1035D0000EFCFFFFA0F10800FFF790BF70B5154685
:1035E00082B0012204460E46684611460AF000FBEE
:1035F000009B69461D7101A80AF018FB294609487D
:1036000005F010FB01AA034631462046FFF7BAFE3B
:1036100001A80AF015FB68460AF012FB204602B02A
:1036200070BD00BF74F4040010B5C3889B0784B05C
:10363000044609D5636A00209AB262F30F001B0C9E
:1036400063F31F4004B010BD01A80AF0CBFA0722B3
:10365000214602A8FFF7C2FF02A901A80AF0F8FA62
:1036600002A80AF0EDFA019B5A88B2B90622214657
:1036700002A8FFF7B3FF02A901A80AF0E9FA02A81D
:103680000AF0DEFA019B5A881AB901A80AF0D8FAA2
:10369000D0E75B7984F82630F7E7B3F8050003F04C
:1036A000C7FB0622A084214602A8FFF797FF02A9C4
:1036B00001A80AF0CDFA02A80AF0C2FA019B5A88C2
:1036C000002AE2D05B79A28C84F8263002FB03F357
:1036D000B3F5F83F1EDC616902A8FFF70FFABDF8E9
:1036E0000830012B4FF04002E3881AD023F010037A
:1036F00043F02803A2629BB2BDF80C2002F5CD4234
:103700007B3292B2012A98BF43F0400343F0020398
:10371000E380BAE74FF4F833B3FBF2F284F82620E3
:10372000D9E7A26243F01803E6E700BF2DE9F047AE
:1037300088B0064615460C460122082101A80AF069
:1037400057FA02A80AF04EFA03A80AF04BFA04A8A6
:103750000AF048FA3046FFF767FF96F826300590E2
:10376000B08C04EB850900FB03F3994500F2D98086
:10377000B9FBF0F8B4FBF0F100FB08F8B9EB080373
:1037800000FB01FA08BFA8EB000854454FEA850585
:1037900000F0C180C31A00FB1144B3FBF0F700FB3B
:1037A0001737002C40F08180002F40F08F80F38885
:1037B0001B073ED5C2455ED8544607AD03E0B38C27
:1037C0001C44444557D844F04060019F03F020FB5F
:1037D0007860204603F01CFB01A9B86006A80AF037
:1037E00025FA012306AA31462846FFF7CBFD2946D4
:1037F00002A80AF02DFA28460AF022FA06A80AF0D2
:103800001FFA029B5B88002BD9D14748474C04F034
:103810003FFA04A80AF014FA03A80AF011FA02A861
:103820000AF00EFA01A80AF00BFA204608B0BDE82B
:10383000F0874AF04060019C03F0EAFA606040467D
:1038400003F0E6FA01A9A06006A80AF0EFF9012347
:1038500006AA314607A8FFF795FD07A902A80AF0B6
:10386000F7F907A80AF0ECF906A80AF0E9F9029BB3
:103870005B88002BC9D0039B5B88002B35D1049B50
:103880005C88002CC5D004A907A80AF0CFF9079AD4
:1038900033681C6A5388494604329B083046A04767
:1038A00007A80AF0CDF90024B3E707ADA3085246F4
:1038B00031462846FFF7AEFD294603A80AF0C8F9AD
:1038C00028460AF0BDF9002F3FF471AF07ADBB08E1
:1038D0004A4631462846FFF79DFD294604A80AF0CE
:1038E000B7F928460AF0ACF961E703A907A80AF07E
:1038F0009DF9079A33681C6A538851469B08043225
:103900003046A04707A80AF09BF9049B5C88002C6E
:103910003FF47FAFB7E7021B4244AA427FF43AAFBD
:1039200045E76FF47A7474E764F404000EFCFFFF5B
:1039300010B5044684B00191FFF776FEA28C019980
:103940009208204604B0BDE81040FFF7EFBE00BF6C
:1039500010B5044682B0FFF767FEA38C94F82600EA
:1039600003FB00F002B010BD10B5044682B0FFF7B3
:103970005BFEA08C02B010BD10B5044682B00838C2
:10398000FFF752FEA08B02B010BD00BF0368084ACB
:10399000DB6A93420BD110B5044682B0FFF744FEB8
:1039A000A08C94F8263003FB00F002B010BD18473D
:1039B0005139000010B5044682B00838FFF734FED4
:1039C000A38BA07F03FB00F002B010BD30B504460E
:1039D00085B0A0F1080528460191FFF725FEA28BCE
:1039E00001999208284605B0BDE83040FFF79EBE19
:1039F00010B550F8083C0A4ADB6A9342044682B08C
:103A0000A0F1080003D002B0BDE810401847FFF74E
:103A10000BFEA08BA37F03FB00F002B010BD00BF24
:103A20005139000003460020DA680132DA6070473D
:103A30000B6881601B680846184700BFD0F814085F
:103A4000704700BF4B1E032B02D96FF47A7070478A
:103A50004B1C5B10C0F81418C0F8183800207047D1
:103A600000F501600068704710B5044B044640F84B
:103A7000083B0AF0E5F8204610BD00BF28F5040019
:103A800010B5054B044640F8083B0AF0D9F820462B
:103A90004BF095FA204610BD28F50400F8B54468AF
:103AA000104B03600546D4B10F4E104F08E040F8AC
:103AB000087B0AF0C5F820464BF081FA6C6874B1B7
:103AC0006068E26B03689B686A60984723689B683C
:103AD000B3422046EBD098476C68002CF0D12846C2
:103AE000F8BD00BF3CF50400813A000028F5040051
:103AF00038B54B680C461A684FF07E510546D268BF
:103B00002163184605F50165904795ED006A9FED24
:103B1000117AD4ED067AD4ED075AC7EE276A431C12
:103B200003EBD37320F002025B10012AC4E90D03FA
:103B300085EE867AC4ED096A84ED0A7A02D0002304
:103B4000236238BDBEEE007A67EE877AC4ED087A4C
:103B500038BD00BF00C07F442DE9F04F2DED068B2E
:103B60008BB00C460AEE100A029106F0DBFB63688C
:103B70000193CDE90401002B00F08281029B4FF4F8
:103B80000072D3F8183892FBF3F2002A40F38B81CD
:103B9000029B0C3392000021184603934BF094FAD9
:103BA000C34E9FEDC48A01240AE002985946FFF7EC
:103BB0009FFFDBF834505DB9019B002B00F099802A
:103BC000019B9B46DB6BDBF834500193002DECD05E
:103BD000029B4FF4007AD3F818289AFBF2FA039A62
:103BE0000AF1030A03EB8A0393420093E4D9904657
:103BF000A246DBF80830DBF838205B8893FBF2F351
:103C000007EE903A9BED0B7ADBED0A6A009BF8EE2B
:103C1000E77AA3EB080777EEC77ABF1087EEA67A9C
:103C2000FDEEC78A18EE904ABC42A8BF3C46A4B33A
:103C3000DBF81000A246C14656F82530984707EE3B
:103C4000900A9BED087A9BED096ADBED0C6ADBF8C4
:103C50001000F8EEE77ABAF1010A77EE877A99ED6B
:103C6000007A67EE867AA6EEA77AA9EC017ADBEDF8
:103C70000B7A9BED0A7A37EE877ADBED0E7A8BEDC5
:103C80000B7AF8EEE77A67EE877AFDEEE77A17EEC1
:103C9000903A1844D0D108EB840818EE903A9F422D
:103CA0001FDBDBF80C30FBB1DBF80410013BCBF879
:103CB0000C300B6806A81B68984706A90BF1080092
:103CC00009F0C6FF06A809F0BBFFDBF808308BED52
:103CD0000B8A5A880433CBF810301344CBF81430D5
:103CE00012B1009B434584D8019B5446002B7FF4BE
:103CF00067AF002C40F08580029B93F828387BB199
:103D0000029B049AC3F83828059AC3F83C2883F824
:103D100028480222012340F6D63106A809F046FCC5
:103D200001224FF4007106A809F062FF029A069C76
:103D30009FED617A658802F60C0393ED008A02F626
:103D40001C03D3ED007AD2F81438D2F8182895FB6A
:103D5000F2F568EE277A032BC7EE879A04F1040484
:103D600000F08580012B00F08280F6EE007A68EE8C
:103D7000678A9FED529A28EE278A75B3B8EEC99AE2
:103D8000039F4F4EDDF80880023D02E0D8F814385A
:103D9000013DB7EC017AD8F8202856F82330F0EE30
:103DA000497AE7EE297A2046F4EE687AF1EE10FAC5
:103DB00048BFF0EE687AF4EE487AF1EE10FAC8BF28
:103DC000F0EE487AFDEEE77A17EE901A1143984725
:103DD000D8F818381C446B1CD8D1029B986803682B
:103DE0001B68984706A91AEE100A09F01FFF06A8DB
:103DF00009F026FF1AEE100A0BB0BDEC068BBDE8E9
:103E0000F08F029A02F62403D3ED007AF5EE407AA1
:103E1000F1EE10FA0ED0D2F818384FF4007292FB7F
:103E2000F3F2002A06DD039B03EB8202E3EC017A46
:103E30009A42FBD1029B93F82838002B7FF470AF95
:103E400002990498C1F830080123059881F82838B0
:103E500001F5046400260027C1F834081A4644E935
:103E6000026740F6D63106A809F0A0FB58E7B6EE87
:103E7000009A28EE099ADFED0F8ABDEEC99A7CE719
:103E8000029B986803681B6898471AEE100A012283
:103E90004FF4007109F0ACFE1AEE100A0BB0BDEC45
:103EA000068BBDE8F08F029B0C33039378E600BFCE
:103EB000A41700200000000000C07F4400000000A4
:103EC000C817002070B505462DED028B402008EE86
:103ED000902A0E4608EE103A4BF073F84022044642
:103EE00000214BF0F1F82046154B40F8083B09F053
:103EF00079FEF5EE408AF1EE10FA04BF05F5016394
:103F0000D3ED008A6660B8EEC88A002300222146FD
:103F10002846C4E9033384ED068AC4ED078A636149
:103F2000E262FFF7E5FD33686A685B68E26330468A
:103F30006C6021469847BDEC028B204670BD00BFE7
:103F400028F5040007EE901AF8EE677A00F60C00E8
:103F5000C0ED007A00207047C0F82018002070479C
:103F6000406810B5134C01440120C4F80405D4F88E
:103F700000040028FBD093B1101FC2F1040202EB31
:103F8000010C0C4A00EB830E0CEB000350F8041FED
:103F90001960D2F80034002BFBD07045F4D1054AEB
:103FA0000023C2F80435D2F80034002BFBD00020E7
:103FB00010BD00BF00E0014040680D4A02230144EB
:103FC000C2F80435D2F80034002BFBD00848C2F800
:103FD0000815D0F80034002BFBD00023044AC0F8A9
:103FE0000435D2F80034002BFBD00020704700BF0E
:103FF00000E0014000207047C0687047D0E90230FF
:1040000003FB00F0704700BF10B504460846646823
:10401000114621449A004BF02FF8002010BD00BF3C
:1040200002680549D2688A4204D1D0E9020303FB41
:1040300000F07047104700BFFD3F0000C360024B17
:104040000360C0E90112704760F50400704700BFCB
:104050006FF47D70704700BF6FF47D70704700BFD4
:1040600010B5C388044A026023F400530446C38099
:1040700005F08AF9204610BD84F5040010B5C38808
:10408000064A026023F400530446C38005F07CF91D
:1040900020464AF094FF204610BD00BF84F504007E
:1040A000036870B55A6C0A4DAA42044606D15B6893
:1040B000084A934208D16FF47D7070BD9047236821
:1040C000044A5B689342F6D02046BDE8704018472A
:1040D000594000002131000070B50646006A0368AF
:1040E000DB6A9847306A03681B6B9847F369D868A6
:1040F000002820DD06F130011E4D0844002411F98E
:10410000012B02F5A272884245F82240F7D11A4DE0
:10411000002402E0DA68A2420DDD5A6952F8240058
:1041200002685268AA4204F10104F3D09047F3698F
:10413000DA68A242F1DC9A68002A13DD0E4D0024F1
:1041400002E09A68A2420DDD1A6952F82400026862
:104150005268AA4204F10104F3D09047F3699A68C7
:10416000A242F1DCF388002223F00203F380F2750F
:1041700070BD00BF0060004021310000C37D0BB165
:10418000FFF7AABF704700BF2DE9F04FC37D85B090
:1041900004460191002B6CD1C3880293E669F36851
:1041A000002B6DDD0123206ADFF8E880DFF8E8E00E
:1041B000344D354F039404F1300C04F135020021E5
:1041C0009B469C1C8CF80030147074696458247CE5
:1041D00003F5A27948EA04244EF8294012F9019B1C
:1041E000446909F1A20901F5A27A544445F839401D
:1041F00012F9014C1CF9019BA23405EBC40407EB36
:104200008909C4F8049012F9014C0BFA04F4C5F8BA
:104210000445F4689C4201F1040103F10103D0DC80
:10422000039C029B23F00103E380019B327A174930
:10423000023B012B9CBF0132D2B26275C2EB02126B
:10424000134B9200B3FBF2F2237B626202FB03F397
:10425000A1FB0313DB0BA36203680021DB6B984710
:10426000236A5B690122DA60019BA37505B0BDE892
:10427000F08FC3880293DB0790D4D0E90760D4E7BE
:10428000206ACEE700F001403060004081808080ED
:104290000024F40003000100006000402DE9F84311
:1042A0000546817DFFF770FFEB699A68002A20DDE3
:1042B000304FDFF8C490DFF8C48000240AE05A6C65
:1042C0004A4549D15B68434543D1EB699A6801345B
:1042D000A2420EDD1B6953F8246033689A68BA4223
:1042E000EDD0002130469047EB699A680134A24234
:1042F000F0DCDA68002A20DD1E4FDFF87C90DFF862
:104300007C8000240AE05A6C4A452DD15B68434505
:1043100027D1EB69DA680134A2420EDD5B6953F8FC
:10432000246033689A68BA42EDD000213046904745
:10433000EB69DA680134A242F0DC286A03685B6A40
:104340009847286A03689B6A98470123EB75BDE884
:10435000F88330469847B8E70021304690473368E5
:10436000B0E730469847D4E700213046904733689D
:10437000CCE700BFA14000005940000021310000FF
:10438000C37D03B17047FFF789BF00BFF8B515467D
:104390000E46526829689DF81870044605F020F80A
:1043A000EA68134B13492360052A4FF00003C4E960
:1043B0000756A7750C602376E3752375E3620FDC5F
:1043C000326819463046936B9847206A03684FF469
:1043D0007A51DB6C9847226AE37D0749D1600BB1C3
:1043E0002046F8BD2046FFF759FF2046F8BD00BF24
:1043F00084F50400C02D0020ED46000010B50346F2
:1044000061B102680E49126B0E4CC37D23708A4263
:1044100013D10BB1FFF760FE002010BD094A1278DE
:10442000002AF9D01A680849D26A8A4205D1DB7D90
:10443000002BF1D1FFF732FFEEE79047002010BDCF
:104440007D4100000A4C0020814300002DE9F04F1F
:10445000C769037DBA680569934285B0044680F256
:104460001B813A699E4E52F8230003681B68B342D1
:1044700040F03281D4F82080D8F814200123536012
:10448000227D617D1A44B2FBF1F001FB10222275FE
:10449000B86882425EDAD7F80C90B969B9F1000FBA
:1044A00001EB42014BDDAA1DD8F814500095258977
:1044B0000195CDE9027800FA03FEDDE90078A07DE0
:1044C000CDE9002600F0FD0004F1300CCD18227E6D
:1044D000032A03D8DFE802F002B2A3BF4A78009EA5
:1044E00015F801AC08FB026212F80A2018B9002A7C
:1044F00000F0BF80FF22A66A03F5A87A06FB02F24D
:1045000047F82A209A46002A00F0B8809CF900203B
:10451000920002F1804202F5C042D2F810B52BF4AD
:10452000801BC2F810B5D145714403F101030CF1B1
:10453000010C7544CBDCDDE90278019E227D3B69EC
:1045400053F8220003681B68B34240F0BC80D8F8DF
:1045500014305EE0626AD8F800300021DB6B920014
:1045600040469847E169CB68002B27DD0025DFF83E
:10457000749104F13007A84602E0CB68AB421DDD20
:104580004A6917F9013B013502EB850203F5A27375
:1045900052F8040C49F82380D4E9082305F5A87CD7
:1045A00052699B0042F82C3003681B68B342E4D088
:1045B00001219847E169CB68AB42E1DC0B691868DF
:1045C00003681B68B34240F083800B6994F9302084
:1045D0001B6844491B7C02F5A2721B0243F00113C5
:1045E00041F8223094F9303094F935103E4A9B005E
:1045F000A23103F1804303F5C24342F83130236A0C
:1046000094F935105B69A23102EBC10203F1440158
:1046100051600122DA601A6005B0BDE8F08F91F8B0
:1046200001A06289009EA2EB0A0215F801AC08FB0A
:1046300002626FEA0A0A12F80A2057E715F8012CFD
:10464000009E91F801A002FB088232446FEA0A0A38
:1046500012F80A204AE7628915F801AC009E013A77
:10466000A2EB0A0208FB026291F801A012F80A20EC
:104670003CE703F5A8729A4647F822009CF900200F
:10468000920002F1804202F5C042D2F810B54BF41C
:10469000801BC2F810B546E7D0E908235169104ED7
:1046A0009A00D1F84435817DC3EB0323B3FBF2F3C9
:1046B000C288C3F1FF0342F00302C362C280FFF766
:1046C00063FDE769D6E601219847236A5B69A0E7A5
:1046D00000219847E16978E700219847E769C9E632
:1046E000514000000060004000F00140024B18689B
:1046F00008B1FFF7ABBE7047C02D0020103009F0A5
:10470000D3B800BF10B5044604F022FE40B9237BA5
:10471000616A044A01FB03F3A2FB0323DB0BA362E0
:1047200010BD00BF81808080C1607047032070474A
:10473000006B07EE900AF8EEE77A17EE900A7047E2
:104740000F4B03F10802343310B50446C0E90023CF
:10475000243009F075FA04F1200009F071FA04F12F
:104760001C0009F06DFA04F1180009F069FA054A15
:1047700062600023201D638103F044F9204610BDD0
:10478000BCF5040060010500114B03F1080234334D
:1047900010B50446C0E90023243009F051FA04F1B1
:1047A000200009F04DFA04F11C0009F049FA04F167
:1047B000180009F045FA074A626000236381201D52
:1047C00003F020F920464AF0FAFB204610BD00BF56
:1047D000BCF504006001050038B5124B03F1080276
:1047E0003433044640F8042C40F8203B09F028FA02
:1047F00004F11C0009F024FA04F1180009F020FA71
:1048000004F1140009F01CFA074A22600023251F56
:10481000E380204603F0F6F828464AF0D0FB28460D
:1048200038BD00BFBCF504006001050038B5114B70
:10483000054603F108023433044640F8042C45F8D9
:104840000439203009F0FCF904F11C0009F0F8F9F2
:1048500004F1180009F0F4F904F1140009F0F0F97A
:10486000054A226000232046E38003F0CBF8284667
:1048700038BD00BFBCF5040060010500F0B5264B53
:10488000036004460025254B436083B0218104303A
:104890006581164603F048F8214B23602C33636092
:1048A00004F1100003F096FF04F11C0701224FF4FD
:1048B000007104F1180009F09BF9384609F092F9EB
:1048C00004F1200009F08EF92946012204F12400A8
:1048D00009F08EF900234FF4007163650122E16352
:1048E000C4E90A55E560256401A809F081F901A928
:1048F000384609F0ADF901A809F0A2F9094A626346
:10490000AE424FF000032046C4E91355C8BF2663EA
:10491000238703B0F0BD00BFB006050060010500AD
:10492000C4F5040000C07F4443895B0770B5856A05
:1049300004465DD42B46216A002B64D05033081DF9
:104940004A88A362024493420ED3D1ED037AA06257
:10495000F5EEC07AF1EE10FA3CDA04F1100004F042
:1049600021F8002836DCA36A93ED027ADFED277A7E
:1049700019685A68A264B5EEC07AF1EE10FA48BF21
:10498000B1EE477AC7EE276A00206164206504F122
:10499000580104F16405D4ED0C7AF8EEE77A67EE7D
:1049A000A67AFDEEE77AF8EEE76AC4ED137ADA69E3
:1049B0009861012AB8BF012207EE902AB8EEE77A83
:1049C000DA61C6EE877A1433E1EC017A8D42EED1DA
:1049D000002070BD0026A66204F1240104F120002D
:1049E00009F036F9A81BC4E9136618BF012070BD91
:1049F0000023836200F12401203009F029F9A36A21
:104A0000216A002B9AD10B1D184699E700007A44C1
:104A10002DE9F04FD1E9137E2DED088B01F118033C
:104A20004FF0000B9FEDB68ADFEDB6AA9FEDB6AA58
:104A30000BEE903A0BEE100A8BB00C465D467046BA
:104A4000B842034632D0628912F004022ED1049299
:104A5000B8424DDB6289920740F11581049B002B1F
:104A6000EED0AB46002D00F03F81D4ED0D7A228FC1
:104A7000B6EE007A67EE877A5545FCEEE77A17EED8
:104A8000903A43EA02039BB203D22BF8023BDA4589
:104A9000FBD81BEE901A1BEE100A09F0C7F81BEEAC
:104AA000100A0BB0BDEC088BBDE8F08F2046FFF775
:104AB0003BFFE76C6389002F40F09D80002800F0E9
:104AC000F280E56223F0040363810523236401235C
:104AD0001A46218906A808F069FD04F1100003F0C8
:104AE000F5FED4E913700122B84203460492B1DA0C
:104AF000002D00F0CB8006AA019204F15802029228
:104B000004F1640BD4ED127AD4ED0D8A94ED117A90
:104B1000A16ADDF808C0DDF804E068EEA78AD4EDEC
:104B20000C7A27EE087AF8EEE77A68EEAA8A87EE22
:104B3000279A0E46F0EE4A9AE8EECA9AD6F81880FE
:104B4000F269BCEC017A07EE908AF8EEE77A013A56
:104B500067EE877A9045FDEEE77A06F11406EEECF3
:104B6000017A08BF4EF8047CE345E7D1DDE906761B
:104B7000089ABE42A8BF3E469642A8BF16469E422D
:104B800040DDAA4585D0D4ED157AFDEEE77AD1E96E
:104B9000033017EE901A984707EE900AF8EE676A0E
:104BA000B0EE697AA8EEA67A206D228FD4ED157A40
:104BB000BCEEC77A79EE277A17EE101AF4EEC87AAF
:104BC000431C1143F1EE10FA25F8021B1846236529
:104BD000C4ED157A08DD77EEC87AF4EEC87AF1EE06
:104BE00010FAF8DCC4ED157AB3420BDA55453FF400
:104BF00050AFA16AC7E713F004025CD000283FF46D
:104C000061AF5EE79C46BC4586460DF11C094FF03E
:104C100014084FF00006204608D00136032E08F194
:104C2000140828D059F8047BBC45F6D1826A06EBFB
:104C3000860102EB810389000391D3E906718F425B
:104C40004FEA8604E9DA5B6902EB08014BB1059093
:104C500098470598039B826AD0F850E01344F446C5
:104C60009F69344402EB840201360137032E9761B9
:104C700008F11408D6D104466346E76C67457046D0
:104C80003FF740AFEAE6002D7FF4E8AEE56AB5B144
:104C9000A2690021E16202F1040A5288874292442B
:104CA0003FF729AFDAE659073FF50CAF206D012336
:104CB00004930346CCE6206D04920346C8E606AD95
:104CC0000122E16B284608F093FF29461BEE900A6B
:104CD00008F0BEFF284608F0B3FFA269206DE76C1C
:104CE000151D0346AA46D8E706A808F07BFF1BEE71
:104CF000900A06A908F0ACFF06A808F0A1FFC8E6D4
:104D0000000080440000803A00000044F0B50C46EA
:104D100001F11C0785B03946064608F087FFE36AB3
:104D20006D4633B128462146FFF772FE284608F04B
:104D300087FF0023E36204F11801384608F088FF7A
:104D400021462846FFF764FE284608F079FFE06810
:104D500003681B689847236C002B02DD013B23642A
:104D600013B1304605B0F0BD218901230222284647
:104D700008F01CFC304605B0F0BD00BF438919B1F6
:104D800043F002034381704723F002039BB2438147
:104D9000704700BF01607047704700BF70B5664E36
:104DA000664D674C6749304609F002F83046664E5A
:104DB0002A4621464AF0FEF86449304608F0F8FFDA
:104DC0003046634E2A4621464AF0F4F8614930469F
:104DD00008F0EEFF3046604E2A4621464AF0EAF8D7
:104DE0005E49304608F0E4FF30465D4E2A462146D3
:104DF0004AF0E0F85B49304608F0DAFF30465A4E98
:104E00002A4621464AF0D6F85849304608F0D0FFE5
:104E10003046574E2A4621464AF0CCF8554930468E
:104E200008F0C6FF3046544E2A4621464AF0C2F8E2
:104E30005249304608F0BCFF3046514E2A462146C2
:104E40004AF0B8F84F49304608F0B2FF30464E4EAF
:104E50002A4621464AF0AEF84C49304608F0A8FFF1
:104E600030464B4E2A4621464AF0A4F8494930467E
:104E700008F09EFF3046484E2A4621464AF09AF8EE
:104E80004649304608F094FF3046454E2A462146B2
:104E90004AF090F84349304608F08AFF3046424EC7
:104EA0002A4621464AF086F84049304608F080FFFD
:104EB00030463F4E2A4621464AF07CF83D4930466E
:104EC00008F076FF30463C4E2A4621464AF072F8FA
:104ED0003A49304608F06CFF3046394E2A462146A2
:104EE0004AF068F83749304608F062FF3046364EDF
:104EF0002A4621464AF05EF83449304608F058FF09
:104F00003046334E2A4621464AF054F8314930465D
:104F100008F04EFF3046304E2A4621464AF04AF805
:104F20002E49304608F044FF2A4621463046BDE867
:104F300070404AF03FB800BFF02D00201000002064
:104F400061DD00000CF60400C42D002014F60400FE
:104F5000E42D002084F70400082E00208CF70400C4
:104F6000E82D002068F804000C2E002070F80400E2
:104F7000C82D00204CF90400D82D002058F9040059
:104F8000DC2D0020ECF90400F82D0020F0F90400DD
:104F9000EC2D002084FA0400102E00208CFA04006E
:104FA000FC2D002020FB0400D02D002028FB040055
:104FB000F42D0020BCFB0400CC2D0020C4FB040019
:104FC000002E002058FC0400D42D002060FC0400BA
:104FD000E02D0020ACFC0400042E0020B4FC0400F2
:104FE0006FF47D70704700BF6FF47D70704700BF35
:104FF0006FF47D70704700BFC08800F00500003876
:1050000018BF0120704700BFC08800F00A000038B8
:1050100018BF0120704700BFC08810F0030018BF00
:1050200001207047C08800F00C00003818BF012034
:10503000704700BFC088C0F3802070476FF47D7058
:10504000704700BF6FF47D70704700BF03684FF476
:105050007A729B6B02FB01F1184700BF6FF47D7001
:10506000704700BF6FF47D70704700BF08B50368DC
:10507000DB6B9847024BA3FB0030800908BD00BFE3
:10508000D34D62106FF47D70704700BFC160002087
:10509000704700BF6FF47D70704700BF6FF47D7084
:1050A000704700BF0A717047704700BF704700BF6C
:1050B000006B7047C06A70470120704710B5044606
:1050C00049F07DFF204610BD438B990710B504467B
:1050D00006D5C36C5BB110BD23F002039BB26383A2
:1050E000E26C002AC4BF43F00203638310BD05F0E5
:1050F00009F9E36BC01A61F10001652871F1000341
:10510000638BE9D29A07EBD510BD00BF0B4B10B5EE
:1051100003F1080103F18802AC33044601604261E7
:10512000C361283008F08CFD054A6261002304F158
:105130001400638302F066FC204610BD98FE040054
:105140006001050038B50C4B03F1080103F188023A
:10515000AC33044640F8141C02608360143008F03D
:105160006FFD064A226000232046A4F11405E38067
:1051700002F048FC284638BD98FE04006001050096
:10518000026838B593690D4612498B42044617D11F
:10519000C38803F005031BB153680F4A934201D142
:1051A0000E4838BD20469847B5FA85F35B0983421F
:1051B000F6D123680A4A1B68934206D1002038BD05
:1051C00098470028ECD02268E6E729462046984711
:1051D000002038BDF94F00002131000012FCFFFF14
:1051E0005140000002680849D26B8A4208B505D1D7
:1051F000C06A064BA3FB0030800908BD9047034BF3
:10520000A3FB0030800908BDB5500000D34D6210EB
:10521000012070470D4B10B503F1080103F188021E
:10522000AC33044601604261C361283008F008FDD8
:10523000074A62610023638304F1140002F0E2FB79
:10524000204649F0BCFE204610BD00BF98FE040079
:105250006001050038B50E4B03F1080103F1880227
:10526000AC33044640F8141C02608360143008F02C
:10527000E7FC084A22600023A4F11405E3802046DD
:1052800002F0C0FB284649F09AFE284638BD00BF10
:1052900098FE040060010500C388990710B5044614
:1052A00006D5836B5BB110BD23F002039BB2E38094
:1052B000A26B002AC4BF43F00203E38010BD05F0D7
:1052C00021F8A36AC01A61F10001652871F1000399
:1052D000E388E9D29A07EBD510BD00BF1B4B70B530
:1052E000044603604FF48073C3800025184B22816D
:1052F00002202071636104F114002574E560A5614A
:105300000E4602F011FB134B266203F1080103F174
:105310008802AC3321606261E36101224FF40071C5
:1053200004F1280008F064FC638BA26AE5620021A6
:105330008020043243F4804320636562E563626445
:10534000A164E5646383204670BD00BF2CFE0400A9
:105350006001050098FE040038B5856A2DED028BCA
:105360006A8804460435002949D01544636B002B34
:1053700042D007EE903ADFED2C6A9FED2C6AF8EEF2
:10538000E77A86EEA77ADFED2A6A67EE067AC7EE3D
:10539000A68A636C9D4228D99FED248AD4ED127AA7
:1053A000FDEEE77A002017EE901A08F05FF808B1DA
:1053B00094F84C00636C1870D4ED127A636C78EE3C
:1053C000A77A0133F4EEC87AF1EE10FA6364C4ED03
:1053D000127A08DD77EEC87AF4EEC87AF1EE10FAA8
:1053E000F8DCC4ED127AAB42D8D3BDEC028BD4E921
:1053F0000B23C4E90D2338BDDFED0E8AC9E7D0E9E0
:105400000F315B1A07EE903A9FED0B7AF8EE677A50
:1054100067EE877AFDEEE77A17EE903A9342D4BFB3
:10542000ED18AD18A2E700BF0024744900008044C5
:1054300000442C470000000078C2B93C10B5044677
:1054400004F060FFE36AE06303B1236BE3640021CF
:105450002046FFF781FF638BDB0700D510BDFCF70B
:10546000FBFE04F11C01074A206A8023FEF72AFD97
:10547000628B016842F00102096860626283BDE8E4
:105480001040084700442C47B1F5806F0DD8B1F5A6
:10549000007F08B5C8BFC1F580618029A8BF802101
:1054A0000163FFF7CBFF002008BD6FF47A707047EF
:1054B00008B5C162FFF7C2FF002008BD026810B541
:1054C0004FF47A74926B04FB01F1054CA24204D1B3
:1054D000C162FFF7B3FF002010BDBDE810401047C8
:1054E000B154000070B50C4682B0054608F07AFB56
:1054F000638B9B070DD4A36A0433636404F002FF3B
:10550000636A20641A68184613689847284602B0F0
:1055100070BD04F128063146284608F099FB204664
:105520000121FFF719FF01224FF4007101A808F0D3
:105530005FFB01A9304608F08BFB01A808F080FB57
:10554000D9E700BFA1F11C01FFF7CCBF00487047AD
:1055500060FF0400084603F0BDBB00BF084602F030
:10556000EBBF00BF82B010B58C4684B04968864658
:10557000DCF800000DF1080CACE8030006A981E896
:105580000C00039BDA070EEB630C12D55A10029B3A
:105590005EF80220D45808AB93E803008DE80300BE
:1055A00006AB0CCB6046A04704B0BDE8104002B08B
:1055B0007047029CEFE700BF82B08DE80C0000212D
:1055C00000F50C6002B0FCF753BE00BF82B010B50E
:1055D00002A981E80C00BDF80A30152B044610D84A
:1055E000022B1BD9033B122B18D8DFE803F023173B
:1055F0001B351717171717171B1717171717171715
:105600003D0040F6B932934208D100F58054D4F8F9
:105610001C01BDE8104002B007F004BABDE810401C
:1056200002B07047BDE81040D0F8A808036802B087
:105630001B6B1847002100F2EC7005F04DFB04F6DF
:105640000C00002105F048FB04F62C00BDE81040DA
:10565000012102B006F066BCBDE81040D0F8AC08ED
:10566000036802B09B6A184700F580540121D4F802
:105670001801BDE8104002B006F0ECBF10B500F50F
:10568000D5642046FDF790FB18B12046FDF794FB4A
:1056900018B9BDE810400BF02BBE2046FDF71CFDED
:1056A0000028F6D110BD00BF02F03ABA084601F05A
:1056B00065BD00BF0BF01EBE0BF022BE064A13688C
:1056C000591E11603BB9054A116821B14189136027
:1056D00021F40053438170479817002000000020F8
:1056E00002F01EBA064A1368591E11603BB9054AFA
:1056F000116821B1C188136021F40053C380704741
:1057000098170020000000202DE9F04F2DED048BAC
:1057100085B0044601F0ACFBAF4B0027C4E901376C
:10572000201D02F001F9AD4B236003F13C0004F1B0
:105730000C0604F12408AA496060092230460BF0E7
:1057400045FD04F13C05A7490A2240460BF03EFD09
:10575000A5491A2228460BF039FD314601233A4665
:1057600004F1580004F02CFE04F1900006F0A4F8B7
:1057700004F1B80A04F521724146222303925046EF
:105780005B2208F085FD9DED038A2946122204F56F
:10579000317518EE100A0BF067FA04F20C635146EB
:1057A00018EE102A2846039300F09AFADDED039ACA
:1057B0008E4B04F2746804F5B76204F5B46119EE17
:1057C000900A0BF09FF804F5A26204F59F61404631
:1057D00001F0C4FF04F58D6204F5906104F28C6061
:1057E00001F0BCFF04F5D5692822334600924146FA
:1057F0002A464846FDF718F804F5DE612A462A23B2
:105800000D46009341464B462846FDF7C5FC4FF038
:10581000805309EE105A04F21C751B6904F22C76B1
:1058200001224FF4FE212846FEF708FC29463A469D
:105830003046039605F0A8FA0523C4F86037C4F88B
:105840006437C4F86837C4F86C37D4F8E835C4F85E
:105850004C37D4F8EC35C4F85037D4F8F035C4F8E8
:105860005437D4F8F435C4F85837D4F8F835C4F8B8
:105870005C375F4BC4F8783704F5A563C4F8383754
:1058800004F5A863C4F83C3704F5AB6304F27C75F7
:10589000C4F8403704F5AE632846C4F8443704F52D
:1058A000E76604F5B16304F24C7504F5EC6BC4F8DB
:1058B000483707225946C4F87067C4F8745708EE91
:1058C000900AFCF787FE01231A4604F55271CDE9D0
:1058D000007704F2EC7005F0C7F90123022204F509
:1058E0007671CDE9007704F60C0005F0BDF90323CD
:1058F0000222012104F62C0006F0D2FA18EE102A3A
:1059000040F6AC5304F5936104F63C0006F044FB0A
:10591000092104F66C0001F019FD082104F6940039
:1059200001F0CEFE404600F0F5FCC4F8A808404661
:1059300000F078FD039A0092014618EE903AD4F8F0
:10594000A828C4F8AC0804F50B6000F0F9FD04F5D4
:1059500099625346019204F5966A04F59C6200929E
:1059600004F53471524604F50C60FCF7E1FC19EEC5
:10597000903A4A4619EE101A04F5BA6904F59050A7
:10598000FCF798FE678148460AF0D8F9022148469C
:1059900009F0D4FFB4F8D635164923F48073404695
:1059A000A4F8D63509F0A2F956F8040B01210AF043
:1059B000A3FCB542F8D155F8040B01210AF09CFC78
:1059C000AB45F8D1012150460AF096FC204605B0BF
:1059D000BDEC048BBDE8F08F60010500A8FF04005A
:1059E0000090004000A0004000A0014000200040C6
:1059F0006CFF0400801A06002DE9F04F83B0DDE94A
:105A00000CABBDF83880002B3CD007460E469146C3
:105A10001D46BAF1000F32D00F2E02D1B8F1C00FDF
:105A200030D1282049F0CDFA0446103007F00CFEA2
:105A300018202680A4F8029049F0C3FACDE900AB03
:105A400084466B460246A06003CB4CF80C5B0023F7
:105A50003E68D360E360CCF80430506091607568B4
:105A600048F00208C4E908330C4BA4F80480384617
:105A700053612146A84740B903B0BDE8F08F1BF041
:105A8000010FC9D16FF47A70F6E7204603F074F87D
:105A9000204649F094FA0248EEE700BF6555000041
:105AA00016FCFFFF30B587B000224FF48053009200
:105AB00004460D4602A811468022FEF7BFFA0123D4
:105AC0000E4A01A902A8FEF79FFA019B73B10B4988
:105AD00001236A4602A8FEF743FA04F59050FCF74A
